:1000000000800020890100000102000007020000BA
:100010000D020000130200001902000000000000A1
:100020000000000000000000000000001F020000AF
:1000300025020000000000002B02000089B0000033
:100040003702000079C000003702000037020000CC
:1000500037020000370200003702000037020000BC
:1000600037020000370200003702000037020000AC
:10007000370200003702000037020000370200009C
:10008000370200003702000037020000370200008C
:10009000370200003702000037020000370200007C
:1000A000370200003702000037020000370200006C
:1000B00011AF0000370200003702000037020000D5
:1000C000370200003702000037020000370200004C
:1000D000370200003702000037020000370200003C
:1000E00037020000C478010000000020B4090000BD
:1000F000C47801000000001000000000B8090020D2
:10010000340D0000000000100000000080B489B031
:1001100000AFF860B9607A60BB68FB61FB68BB61E7
:1001200000237B610AE0BA69131DBB61FB69191DDD
:10013000F96112681A607B6904337B617A697B68B4
:100140009A42F0D300BF00BF2437BD4680BC704741
:1001500080B485B000AF786039607B68FB600023B5
:10016000BB6007E0FB681A1DFA6000221A60BB68DA
:100170000433BB60BA683B689A42F3D300BF00BF48
:100180001437BD4680BC704780B584B000AF194BB2
:10019000FB6013E0FB681A1DFA601B683B60FB689C
:1001A0001A1DFA601B68BB60FB681A1DFA601B68A9
:1001B0007B607A68B9683868FFF7A8FFFB680E4A69
:1001C0009342E7D30DE0FB681A1DFA601B68BB6021
:1001D000FB681A1DFA601B687B607968B868FFF7D6
:1001E000B7FFFB68054A9342EDD30CF005FA0CF01B
:1001F00051F8FEE7E4000000FC0000000C010000E4
:1002000080B400AFFEE780B400AFFEE780B400AF7B
:10021000FEE780B400AFFEE780B400AFFEE780B435
:1002200000AFFEE780B400AFFEE780B400AFFEE7AA
:1002300080B400AFFEE780B400AFFEE780B586B0C3
:1002400000AF786039600E23FB827B685B890E2BE0
:100250006ED97B685B683B613B691A7B5B7B1B02E9
:100260001343FB817B68DB7B002B06D13B6893F853
:1002700030300133DAB27B68DA733B691B7803F004
:100280000103002B23D03B691B78012B0FD13B6965
:100290005B78002B1BD13B699B785E2B17D17B6869
:1002A0005B7B43F01003DAB27B685A730FE03B6963
:1002B0000622284918460EF035FA0346002B06D1CF
:1002C0007B685B7B43F00803DAB27B685A73FB8977
:1002D000082B03D0B3F5C16F14D032E03B6893F81C
:1002E0002D3003F00803002B24D0FB8A19467868D0
:1002F00003F06DFA0346002B1ED13968786801F0CF
:1003000065F913E03B6893F82D3003F00803002BE8
:1003100014D0FB8A1946786803F059FA0346002B7B
:100320000ED13968786800F019FB00BF00230CE09B
:1003300000BF06E000BF04E000BF02E000BF00E035
:1003400000BF786803F0B3FA002318461837BD469B
:1003500080BD00BF746B010080B586B000AFF8604F
:10036000B9607A603B603B8C184602F0FFF90346A7
:10037000FB820E21B86803F01BFA0346002B20D144
:10038000BB685B683B613B69FA8A9A813B690622DC
:10039000396818460EF0FAF93B6906330622796887
:1003A00018460EF0F3F9FB6893F82C30062B01D0B9
:1003B0000AF0A5FEFB689B69B968F8689847034690
:1003C00002E000BF6FF0010318461837BD4680BD3C
:1003D00080B582B000AF786015497A6813465B003B
:1003E0001344DB000B441B68002B13D010497A68C0
:1003F00013465B001344DB000B441B68184603F0F4
:1004000056FA0B497A6813465B001344DB000B4431
:1004100000221A6006497A6813465B001344DB0029
:100420000B44143300221A7000BF0837BD4680BD4C
:10043000B809002080B582B000AF00237B6096E051
:100440004F497A6813465B001344DB000B441433B6
:100450001B78FB70FB78002B00F0868048497A6897
:1004600013465B001344DB000B4412331B8801333B
:1004700098B243497A6813465B001344DB000B448F
:10048000123302461A803E497A6813465B001344D1
:10049000DB000B4412331B88B3F5967F15D2384925
:1004A0007A6813465B001344DB000B4414331B785B
:1004B000012B0ED132497A6813465B001344DB00EE
:1004C0000B4412331B88042B03D97868FFF780FF95
:1004D0004AE02B497A6813465B001344DB000B4467
:1004E00014331B78032B0AD125497A6813465B0025
:1004F0001344DB000B44143304221A7034E0204907
:100500007A6813465B001344DB000B4414331B78FA
:10051000042B0AD11A497A6813465B001344DB00A6
:100520000B44143302221A701EE015497A681346F0
:100530005B001344DB000B4414331B78012B13D1F5
:100540000F497A6813465B001344DB000B44083301
:1005500018687A6813465B001344DB00084A1344AA
:100560000433194600F0DEFD7B6801337B607B6855
:10057000092B7FF765AF00BF00BF0837BD4680BDC0
:10058000B809002080B58AB000AFF8600B467A60E9
:10059000FB720A23FB840A23BB840A237B84002387
:1005A0003B840A23FB830023BB8300237B8300233C
:1005B0003B8300233B84A9E0B7F9202099491346E7
:1005C0005B001344DB000B4414331B78FB75B7F955
:1005D00022300A2B05D1FB7D002B02D13B8C7B8482
:1005E00090E0FB7D002B00F08D80FB7D012B04D083
:1005F000FB7D012B01D80AF082FDFB68002B20D087
:10060000FB681968B7F92020864813465B0013443D
:10061000DB00034404331B68994212D17B68002B32
:100620000CD0B7F920207F4913465B001344DB0050
:100630000B4408331B687A689A4202D1B7F920301C
:10064000ECE0FB7D012B40D1B7F920207549134622
:100650005B001344DB000B441B68002B1AD0B7F976
:100660002020704913465B001344DB000B44123317
:100670001B88BA8B9A4245D83B8CFB83B7F9202064
:10068000684913465B001344DB000B4412331B889C
:10069000BB8337E0B7F92020624913465B0013445F
:1006A000DB000B4412331B887A8B9A422AD83B8C8E
:1006B000FB84B7F920205B4913465B001344DB0041
:1006C0000B4412331B887B831CE0FB7D012B19D963
:1006D000B7F92020534913465B001344DB000B4459
:1006E00012331B883A8B9A420CD83B8CBB84B7F9E7
:1006F00020204C4913465B001344DB000B441233AB
:100700001B883B833B8C01339BB23B84B7F9203081
:10071000092B7FF751AFFB7A03F00203002B08D1BE
:10072000B7F922300A2B07D1FB7A03F00103002B23
:1007300002D14FF0FF3371E0B7F92230092B02DC10
:100740007B8C3B842FE0B7F92430092B0FDCBB8C6A
:100750003B84B7F92020334913465B001344DB0088
:100760000B441B68002B13D00AF0C9FC10E0B7F94A
:100770002630092B02DCFB8C3B8409E0B7F91E30E4
:10078000092B02DCFB8B3B8402E04FF0FF3345E09A
:10079000B7F92030092B01DD0AF0B1FCB7F92030A0
:1007A0001846FFF715FEB7F92030092B01DD0AF0D6
:1007B000A6FCB7F920201B4913465B001344DB005D
:1007C0000B4414331B78002B01D00AF098FCFB6813
:1007D000002B0BD0B7F92020FB681968114813468D
:1007E0005B001344DB00034404331960B7F9202095
:1007F0000C4913465B001344DB000B441233002208
:100800001A80B7F92020074913465B001344DB0028
:100810000B4408337A681A60B7F920301846283735
:10082000BD4680BDB809002080B588B002AFF86031
:10083000B9607A60FB70FB6893F82C30062B01D00E
:100840000AF05DFCBB68002B12D0BB681B68002B54
:100850000ED0BB681B68F968184601F021F9034601
:10086000002B05D1BB681B6803F0F003E02B02D11D
:100870006FF00F036CE0FB78FA681946B868FFF771
:1008800081FE0346FB82B7F91630002B02DAFB8AA1
:100890005BB25DE0B7F916202F4913465B001344A5
:1008A000DB000B44143302221A70B7F916202A49D0
:1008B00013465B001344DB000B440833FA681A60EC
:1008C000B7F9162013465B001344DB000833224AB5
:1008D000134404330622796818460DF057FFB7F920
:1008E00016201D4913465B001344DB000B441233F2
:1008F00000221A80B7F91620174913465B001344EB
:10090000DB000B441B68002B21D0B7F916201249DD
:1009100013465B001344DB000B441B683B61B7F9D3
:1009200016200D4913465B001344DB000B440022E4
:100930001A60FB6803F126024FF4006300937B68A2
:100940003969F868FFF708FD386902F0B0FF002345
:1009500018461837BD4680BDB8090020B0B58AB02A
:1009600004AF786039603B68002B00F08A807B68B8
:100970005B683B613B691B889BB2B3F5807F0CD100
:100980003B691B79062B08D13B695B79042B04D1A9
:100990003B695B889BB2082B03D0786802F087FF25
:1009A00070E03B6903F10E0107F10C0304221846C5
:1009B0000DF0ECFE3B6903F1180107F10803042276
:1009C00018460DF0E3FE3B6804331B68002B04D18E
:1009D0000023FB750023BB7513E0BA683B68043342
:1009E0001B689A420CBF01230023DBB2FB75FA6837
:1009F0003B6804331B689A420CBF01230023DBB21F
:100A0000BB753B6903F10802FB7D002B01D001237C
:100A100000E0022307F10C013868FFF705FF3B698E
:100A2000DB889BB2B3F5807F03D0B3F5007F21D084
:100A300023E0FB7D002B1FD0BB7D002B1CD13B682E
:100A400003F126003B6903F108043B6803F1260526
:100A50003B6804333A6908320221039107F10C0123
:100A60000291019200932B4622460146386800F01D
:100A7000BFFA01E000BF00E000BF786802F017FF96
:100A800000E000BF1837BD46B0BDFFFF80B586B09F
:100A900002AFF860B9601346FB71FA794149134619
:100AA0005B001344DB000B4414331B78012B01D88B
:100AB0000AF025FBFA793B4913465B001344DB003F
:100AC0000B4414331B78022B53D1FA793549134662
:100AD0005B001344DB000B4412331B88B3F58E7F9D
:100AE00019D9FA7913465B001344DB002D4A1344ED
:100AF00004331946F86800F015FB0346002B38D183
:100B0000FA79284913465B001344DB000B44143385
:100B100003221A702DE0FA79224913465B00134430
:100B2000DB000B4412331B88B3F5877F21D3FA799E
:100B300013465B001344DB001A4A1344191DFA796B
:100B400013465B001344DB000833164A1344043396
:100B50001A46F86800F0C4FA0346002B09D1FA7966
:100B6000104913465B001344DB000B44143303228B
:100B70001A70FB6803F12601FA7913465B001344EF
:100B8000DB000833074A134404334FF40062009239
:100B90000A46B968F868FFF7DFFB034618461037C6
:100BA000BD4680BDB809002080B58AB002AFF860AC
:100BB000B9607A607B68BB61FB68002B01D10AF0E9
:100BC0009EFABB68002B01D10AF099FA7B68002BD2
:100BD00001D10AF094FA7B681B68F968184600F0A6
:100BE0005FFF0346002B02D0614BFB61AFE07B68E7
:100BF0001B6803F0F003E02B18D101233B740023A2
:100C00007B745E23BB747B6801331B7803F07F0326
:100C1000DBB2FB747B6802331B783B757B68033364
:100C20001B787B7507F11003FB6190E07B681A6805
:100C3000FB6804331B685A40FB6808331B68134089
:100C4000002B12D07B681B689BB24FF6A9629342BF
:100C50000BD0FB680C331B68002B03D0FB680C33F4
:100C6000BB6102E06FF003037DE0424B1B78194645
:100C7000414A0B465B000B44DB00134414331B78E2
:100C8000012B25D93B4B1B7819463B4A0B465B0091
:100C90000B44DB00134408331B68FA689A4217D1EF
:100CA000BB691A68334B1B781846334903465B000F
:100CB0000344DB000B4404331B689A4208D12D4BDC
:100CC0001B781A46B968F868FFF7E0FE03464AE069
:100CD0000023FB7531E0FA7D274913465B0013447E
:100CE000DB000B4414331B78012B23D9FA7D2249F6
:100CF00013465B001344DB000B4408331B68FA689F
:100D00009A4217D1BB691968FA7D1B4813465B00EC
:100D10001344DB00034404331B6899420AD1154A8B
:100D2000FB7D1370FB7D1A46B968F868FFF7AEFECD
:100D3000034618E0FB7D0133FB75FB7D092BCAD907
:100D4000BA68B969F86800F019F803460BE0FB6867
:100D500003F126024FF400630093FB69B968F86859
:100D6000FFF7FAFA034618462037BD4680BD00BF9C
:100D7000746B0100A80A0020B809002080B58CB06F
:100D800002AFF860B9607A60FB6826337B61FF23AD
:100D900087F8273000233B62BB681B68F968184658
:100DA00000F07EFE0346002B0CD1BB681B6803F0ED
:100DB000F003E02B06D0BB68002B03D0BB681B6898
:100DC000002B02D16FF00F0309E1FA680121B86826
:100DD000FFF7D8FB03467B82B7F91230002B02DA0B
:100DE0007B8A5BB2FBE07B8A7E2B01D90AF087F914
:100DF0007B8A7B747A7C7C4913465B001344DB005E
:100E00000B4414331B78002B15D101233B627A7CF1
:100E1000754913465B001344DB000B441433012275
:100E20001A707A7C704913465B001344DB000B4454
:100E30000833FA681A607A7C6B4913465B001344E6
:100E4000DB000B4414331B78012B0CD07A7C6649F1
:100E500013465B001344DB000B4414331B78012B57
:100E600001D80AF04CF93B6A002B02D17B68002BB9
:100E700028D1B968F86800F055F9034687F827309B
:100E800097F92730002B17D17A7C574913465B001E
:100E90001344DB000B4414331B78012B0CD13B6A49
:100EA000002B09D17A7C504913465B001344DB00C8
:100EB0000B44123300221A807B68002B02D197F971
:100EC00027308CE07B68002B01D10AF018F97A7C7E
:100ED000454913465B001344DB000B4414331B7875
:100EE000012B17D9414A7B7C13707A7C13465B0037
:100EF0001344DB0008333C4A134404334FF40062CC
:100F000000927A697968F868FFF726FA034687F84D
:100F1000273062E07A7C344913465B001344DB00DF
:100F20000B4414331B78012B57D10023BB617B6822
:100F3000FB6117E0FB695A89FB691B899A4205D15D
:100F4000FB691B68002B01D00AF0D9F8FB691B7BF9
:100F500003F04003002B02D00123BB6105E0FB69D5
:100F60001B68FB61FB69002BE4D1BB69002B07D038
:100F70007A684FF420710E2002F011FFF86104E04E
:100F80007B68FB61F86902F00FFDFB69002B21D043
:100F90007A7C154913465B001344DB000B441B6845
:100FA000002B0AD07A7C104913465B001344DB0007
:100FB0000B441B68184602F07AFC7A7C0A491346F7
:100FC0005B001344DB000B44FA691A60002387F8C6
:100FD000273002E0FF2387F8273097F9273018469B
:100FE0002837BD4680BD00BFB8090020A80A0020F0
:100FF00080B58AB002AFF860B9607A603B600023C8
:10100000FB77FB68002B01D10AF079F84FF42072CE
:101010001C210E2002F0CDF9B861BB69002B02D172
:101020004FF0FF3357E0BB695B891B2B01D80AF0F7
:1010300066F8BB695B687B61BB8E184601F096FB66
:1010400003461A467B69DA80FB6893F82C30062B3E
:1010500001D00AF054F87B69083306223968184633
:101060000DF094FB7B6912330622F96A18460DF0E5
:101070008DFB7B690E330422B96A18460DF086FB9E
:101080007B6918330422396B18460DF07FFB7B69AE
:1010900000221A70002242F001025A707B6900227D
:1010A00042F008029A700022DA707B6906221A71F7
:1010B0007B6904225A7140F6060300937B68BA6884
:1010C000B969F868FFF748F9B86902F0F0FB002346
:1010D000BB6197F91F3018462037BD4680BDFFFF22
:1010E00080B588B004AFF860B9607A60FB6803F13E
:1010F0002601FB6803F12600FB68043301220392FA
:10110000BA680292064A0192009303467A68F86828
:10111000FFF76EFF034618461037BD4680BD00BF7F
:101120007C6B010080B582B000AF78603960054A01
:1011300039687868FFF7D4FF034618460837BD467C
:1011400080BD00BF746B010080B58EB004AF7860C5
:101150003960864B9B683B623B6A1B7803F00F0348
:10116000DBB29B00DBB2FB83FB8B132B40F2E980ED
:101170007B685B89032B40F2E6807B685B681B78A9
:101180007B777B7F002B00F0D580082B40F0D5804B
:10119000774B7B62754B5B6903F0F003E02B00F04B
:1011A000D980724B5B69714A12681146184600F08B
:1011B00077FC0346002B02D03B6804337B627B68DC
:1011C0001B89072B40F2C180786801F0FBFC0346C5
:1011D000002B03D0786802F06AFBC4E0FB8B0E336F
:1011E0001946786802F0E4FA0346002B47D07B6882
:1011F0001A89FB8B13447B837B681B897A8B9A4209
:10120000C0F0AA807B8B4FF4207219460E2002F0AA
:10121000D0F878617B69002B00F0A0807B695B8946
:101220001A46FB8B08339A4203D2786902F03FFBDF
:1012300095E07B695B68FA8B396A18460DF0A6FA6F
:10124000FB8B1946786902F0C2FA0346002B05D0E1
:1012500009F055FF786902F02AFB80E07968786927
:1012600002F004FC0346002B03D0786902F01FFB58
:1012700075E0786802F01BFB7B697B600BE0FB8B01
:101280000E331946786802F0A2FA0346002B02D00A
:1012900009F035FF63E07B685B683B61FB8B1946B7
:1012A000786802F085FA0346002B45D17B685B68BD
:1012B000FB607B6A1A68FB68DA602C4B1A69FB6872
:1012C0001A613B6900221A703B695B889BB24FF63A
:1012D000F772934207D93B695B889BB209339AB294
:1012E0003B695A8006E03B695B889BB208339AB23F
:1012F0003B695A80FB68FF221A72FB6800229A72CF
:101300000022DA72FB8B1946F86801F049FC0346AB
:101310001A46FB685A813B6802930123019300231C
:101320000093FF230022796A786800F08DFA034663
:10133000FB7201E000BF00E000BF786802F0B7FA7E
:1013400011E000BF02E000BF00E000BF786802F0DB
:10135000AEFA08E000BF02E000BF00E000BF78681E
:1013600002F0A5FA00BF2837BD4680BDB40A0020B0
:10137000C80A002080B582B000AF78600B46FB70D1
:10138000FB781A460321786800F014F800BF08378C
:10139000BD4680BD80B582B000AF78600B46FB7063
:1013A000FB781A460B21786800F004F800BF083774
:1013B000BD4680BD80B58CB004AF78600B46FB7035
:1013C0001346BB701C23FB837B681B89FA8B9A42F4
:1013D00002D97B681B89FB83FB8B08339BB24FF4DC
:1013E00020721946222001F0E4FFB861BB69002B8E
:1013F0004FD0BB695B891A46FB8B08339A4201D2F6
:1014000009F07DFE7B685B687B61BB695B683B6163
:101410003B69FA781A703B69BA785A703B690022C6
:101420001A7100225A7100229A710022DA71FA8B25
:1014300008237968B86902F030FB7B69DB68BB6020
:1014400007F10803184600F029F8F860FB68002B44
:101450001BD03B6900229A700022DA70BB695B895D
:101460001946386901F09CFB03461A463B695A80CD
:1014700007F10802FB680293012301930023009304
:10148000FF230021B86900F0DFF9B86902F00FFA14
:1014900000E000BF2037BD4680BDFFFF80B485B0AF
:1014A00000AF7860324B1B68FB6036E0FB6893F856
:1014B0002D3003F00103DBB2002B2BD0FB6893F837
:1014C0002D309B0803F00103DBB2002B22D0FB6818
:1014D00004331B68002B1DD07B681A68FB6804333B
:1014E0001B685A40FB6808331B681340002B01D16E
:1014F000FB6838E0FB6893F82D3003F00203002B03
:1015000008D17B681A68FB680C331B689A4201D1CA
:10151000FB6828E0FB681B68FB60FB68002BC5D1FB
:10152000144B1B68002B1AD0124B1B6893F82D30FC
:1015300003F00103002B12D00E4B1B6893F82D30E3
:1015400003F00403002B0AD00A4B1B6804331B680A
:10155000002B04D07B681B68DBB27F2B01D10023FA
:1015600001E0044B1B6818461437BD4680BC704729
:10157000CC0A0020D00A002080B582B000AF78608D
:101580007B6893F82D3003F00103DBB2002B16D0FB
:101590007B6804331B68002B11D00B4B5A697B68A6
:1015A00004331B689A4208D0074B5B697968184678
:1015B00000F076FA0346002B01D0012300E000235F
:1015C00018460837BD4680BDB40A002080B586B0F5
:1015D00000AF786039607B685B687B617B691B78F2
:1015E0001B09DBB2042B04D0786802F060F90023F9
:1015F00021E17B691B7803F00F03DBB29B00DBB2B8
:10160000FB817B695B889BB2184601F0AFF803460B
:10161000BB817B681B89BA899A4204D2BB8919466F
:10162000786801F0F6FF7B685B89FA899A4207D8EF
:101630007B681B89BA899A4202D8FB89132B04D88C
:10164000786802F034F90023F5E0FB8919467869DF
:1016500001F0A6FA0346002B04D0786802F027F9BF
:101660000023E8E07B691B69754A53617B69DB688D
:10167000734A1361724B5B6903F0F003E02B12D1E4
:101680003B6893F82D3003F00103DBB2002B07D049
:101690003B6804331B68002B02D03B683B612AE0A7
:1016A00000233B6127E03868FFF766FF0346002B05
:1016B00002D03B683B611EE000233B61604B5B69ED
:1016C000DBB27F2B17D05F4B1B683B610EE03A69A2
:1016D0003B689A4206D03869FFF74EFF0346002B5D
:1016E00008D100E000BF3B691B683B613B69002BF0
:1016F000EDD100E000BF524B1B693968184600F07D
:10170000CFF90346002B05D14D4B1B6903F0F003C5
:10171000E02B04D1786802F0CAF800238BE03B6923
:10172000002B04D1786802F0C2F8002383E07B69C3
:10173000DB889BB21A464FF63F731340002B0BD049
:10174000786800F021FD78607B68002B01D10023D0
:1017500071E07B685B687B61394A3B691360384A9A
:101760003B685360364A7B6993607B691B7803F062
:101770000F03DBB29B00DBB29AB2314B9A8139681E
:10178000786802F073FB0346FB72FB7A012B3ED0B4
:10179000FB891946786802F01AF87B695B7A112B8D
:1017A00006D0112B13DC012B0CD0062B05D00EE03C
:1017B0003968786808F080FB2AE03968786804F0B6
:1017C0003FF825E039687868FFF7BEFC20E0FB7A37
:1017D000022B18D01A4B5B693969184600F060F982
:1017E0000346002B0FD1164B5B6903F0F003E02B8F
:1017F00009D0B7F90E301946786802F046F8022190
:101800007868FFF7B7FD786802F051F800E000BF94
:101810000B4B00221A600A4B00225A60084B002230
:101820009A60074B00229A81054B00221A61044BF3
:1018300000225A61002318461837BD4680BD00BFFC
:10184000B40A0020CC0A002080B58AB004AFF8604A
:10185000B9607A60FB70BB687B617B68002B09D044
:10186000BB68002B03D0BB681B68002B02D1BB6A8E
:1018700004337B61FA78BB6A029397F824300193B2
:1018800097F82030009313467A687969F86800F079
:1018900005F8034618461837BD4680BD80B588B0A8
:1018A00000AFF860B9607A60FB700023FB61FB68F1
:1018B0009B7B012B01D009F022FC7B68002B00F000
:1018C000BF801423FB821421F86801F071FF0346E6
:1018D000002B02D06FF00103DAE0FB685B68BB61AC
:1018E000FB685B89132B01D809F009FCBB69FA7806
:1018F0001A72BB6997F82C205A7297F82C20FB7843
:101900001B0213431B021AB297F82C10FB781B0220
:101910000B431B121BB2DBB21BB213431BB29BB2B5
:101920001A46FB691344FB617B681A68BB691A613C
:10193000BB691B699BB2FA691344FB61BB691B69F4
:101940001B0CFA691344FB61FB8A9B089BB2DBB258
:1019500043F04003DAB2BB691A70BB6997F82820DC
:101960005A7097F82820BB691B781B0213431B028F
:101970001AB297F82810BB691B781B020B431B1285
:101980001BB2DBB21BB213431BB29BB21A46FB69FC
:101990001344FB61FB681B89184600F0E7FE034611
:1019A0001A46BB695A80BB695B889BB21A46FB69C1
:1019B0001344FB61BB6900229A710022DA71364B35
:1019C0001B88184600F0D2FE03461A46BB699A806F
:1019D000BB699B889BB21A46FB691344FB612E4B83
:1019E0001B8801339AB22C4B1A80BB68002B04D1A0
:1019F0002A4B1A68BB69DA6003E0BB681A68BB69E6
:101A0000DA60BB69DB689BB2FA691344FB61BB69AE
:101A1000DB681B0CFA691344FB61FB691A0CFB6958
:101A20009BB21344FB61FB691B0CFA691344FB6115
:101A3000FB69DB43FB61FB699AB2BB695A810FE02A
:101A4000FB685B89132B02D86FF0010320E0FB6871
:101A50005B68BB61BB691B693B6107F110037B607D
:101A60003B6B9B8C002B0CD0FB681A893B6B9B8CCF
:101A70009A4206D97A68396BF86800F045FD03464A
:101A800006E03B6B5B697A68F968386B98470346F8
:101A900018462037BD4680BDAA0A0020846B01008D
:101AA00080B485B000AF786039607B68FB607B688C
:101AB000B3F1FF3F02D07B68002B01D101232AE064
:101AC0003B6893F82D3003F00203002B01D1002373
:101AD00021E03B6804331B687A689A4201D10023F5
:101AE00019E0FA683B6804331B685A403B680833C6
:101AF0001B681340002B0DD13B6808331B68DA4389
:101B00007B681A403B6808331B68DB439A4201D16B
:101B1000012300E0002318461437BD4680BC7047FF
:101B200080B48DB000AFF860B9607A6000233B628A
:101B3000FB681B68BB61BB68FB6207F11803BB62F3
:101B4000002387F8273058E0002387F82630BB6A47
:101B50001A78324BA3FB0213D9080B469B000B44A7
:101B60005B00D31AFB77BB6A1B782C4AA2FB0323CA
:101B7000DB08DAB2BB6A1A7097F826305A1C87F86D
:101B800026201946FB7F3033DAB201F130033B44A3
:101B900003F81C2CBB6A1B78002BD8D111E03B6AE0
:101BA0005A1C3A627A689A4201DC002330E097F8C6
:101BB0002620FB6A591CF96230323A4412F81C2C78
:101BC0001A7097F826305A1E87F82620002BE6D187
:101BD0003B6A5A1C3A627A689A4201DC002317E099
:101BE000FB6A5A1CFA622E221A70BB6A0133BB626E
:101BF00097F82730013387F8273097F82730032BE1
:101C0000A2D9FB6A013BFB62FB6A00221A70BB6827
:101C100018463437BD4680BC704700BFCDCCCCCC15
:101C200080B584B000AF0023BB60124B1B68FB6023
:101C300018E0FB68DB7F002B0BD0FB68DB7F013BF0
:101C4000DAB2FB68DA77FB68BB60FB681B68FB6095
:101C500008E0FB687B60FB681B68FB60B96878681C
:101C600000F00AF8FB68002BE3D100BF00BF10377B
:101C7000BD4680BDAC0A002080B588B000AF78605A
:101C800039600023FB833A687B689A4201D109F0EE
:101C900036FA3B68002B06D03B681B687A689A428C
:101CA00001D009F02CFA7B685B685B687B617B691B
:101CB0009B889BB2002B26D17B685B68BB617B69EC
:101CC0001A687B685A60BB6958687B6808331422BD
:101CD00019460CF05BFD0121B869FFF75BFBB869A1
:101CE00001F04CFE03467B82FA8B7B8A1344B3F5EA
:101CF000803F01DB09F003FAFA8B7B8A1344FB83F4
:101D0000B86901F0D4FD7B685B68BB611BE0BB690F
:101D10005B687B61BB69FB607B691B68BB61F868C2
:101D200001F02CFE03467B82FA8B7B8A1344B3F5C9
:101D3000803F01DB09F0E3F9FA8B7B8A1344FB83D4
:101D4000F86801F0B4FDBB69002BE0D13968786810
:101D500000F0B2F8094B1B88FA8B9A4201D909F0BE
:101D6000CEF9064B1A88FB8BD31A9AB2034B1A8012
:101D7000FB8B18462037BD4680BD00BFB00A00204F
:101D800080B58AB000AF7860396000237B610023A2
:101D90003B620023FB610023BB6100233B61284BB6
:101DA0001B687B6230E07B6A5A697B68DB689A4219
:101DB0000CD17B6A9A697B681B699A4206D17B6A5F
:101DC0009A897B689B889BB29A4214D03B69013305
:101DD0003B613B6A002B04D17B6A3B62FB69BB61C0
:101DE00009E07B6ADA7F3B6ADB7F9A4203D87B6A31
:101DF0003B62FB69BB617B6A1B68002B01D07B6A7D
:101E0000FB617B6A1B687B627B6A002BCBD13B6AE0
:101E1000002B08D0B969386AFFF72EFFF8607A699D
:101E2000FB6813447B617A693B689A4202DA3B693A
:101E3000012BACDC7B6918462837BD4680BD00BF4E
:101E4000AC0A002080B584B000AF7860396005200E
:101E500000F0B8FFF860FB68002B10D13968786893
:101E6000FFF78EFF02463B68934203DC052000F03B
:101E7000A9FFF860FB68002B01D1002316E02022A7
:101E80000021F8680CF074FDFB680F22DA77094B2B
:101E90001A68FB681A60074AFB681360FB6808331E
:101EA0001422796818460CF071FCFB68184610374C
:101EB000BD4680BDAC0A002080B582B000AF78601E
:101EC00039600D4B1B687A689A4204D17B681B68A5
:101ED000094A136008E03B68002B01D109F00FF9B3
:101EE0007B681A683B681A607968052000F09AFFE1
:101EF00000BF0837BD4680BDAC0A002080B58CB05D
:101F000000AFF860B9607A600023BB6201233B62D6
:101F1000BB685B68FB61FB695B889BB2184600F09D
:101F200025FC03467B83FB691B7803F00F03DBB2C0
:101F30009B007B767B7E9BB27A8B9A4202D24FF0DB
:101F4000FF331CE17B7E9BB27A8BD31A7B83FB69C8
:101F5000DB889BB2184600F009FC0346C3F30C0370
:101F60009BB2DB00FB82BB685B68FB62FB6A002202
:101F70001A7000225A7000229A700022DA70FB6AEE
:101F8000FA8A9A80FA8A7B8B13449AB2FB6ADA80C7
:101F9000FB6ADB889BB2FA8A9A4202D94FF0FF3380
:101FA000EDE0FB685B687B6268E07B6A5B683B61D5
:101FB000FB6A9B889AB23B699B889BB29A4235D256
:101FC000FB6A7A6A1A60BB6A002B20D0FB6A9B8886
:101FD0009AB2BB6ADB889BB29A4207D3FB6ADB8862
:101FE0009AB23B699B889BB29A4202D94FF0FF3369
:101FF000C5E0BB6ABA681A60BB6ADB889AB2FB6A42
:102000009B889BB29A423DD000233B623AE0FB6A38
:10201000DB889AB23B699B889BB29A4202D94FF007
:10202000FF33ACE0FB68BA685A602BE0FB6A9B8820
:102030009AB23B699B889BB29A4202D14FF0FF3320
:102040009DE0FB6A9B889AB23B69DB889BB29A420F
:1020500002D24FF0FF3392E0BB6A002B09D0BB6A7B
:10206000DB889AB23B699B889BB29A4201D00023DD
:102070003B623B691B687B623B69BB627B6A002BEE
:1020800093D100E000BF7B6A002B23D1BB6A002BF9
:1020900017D0BB6ADB889AB2FB6A9B889BB29A42D4
:1020A00001D909F02CF8BB6ABA681A60BB6ADB88F0
:1020B0009AB2FB6A9B889BB29A420BD000233B6288
:1020C00008E0FB685B68002B01D009F018F8FB689A
:1020D000BA685A607B68002B05D1FB689B7F03F0D0
:1020E0000103002B4AD03B6A002B40D0FB685B68A1
:1020F000002B06D0FB685B685B689B889BB2002B5B
:1021000002D000233B6232E0FB6ABB62FB6A1B68C1
:102110007B6212E07B6A5B68FB62BB6ADB889AB217
:10212000FB6A9B889BB29A4202D000233B6207E085
:10213000FB6ABB62FB6A1B687B627B6A002BE9D18E
:102140003B6A002B13D0FB685B68002B01D108F0C1
:10215000D6FFFB685B685B68FA6A9A4201D108F0B7
:10216000CEFFFB6A1B68002B01D008F0C8FF3B6A5A
:10217000002B14BF01230023DBB200E0002318462C
:102180003037BD4680BDFFFF80B58EB000AF7860B0
:102190007B685B68BB62BB6A1B7803F00F03DBB232
:1021A0009B00DBB2142B40F06081BB6ADB889BB2E2
:1021B000184600F0DBFA0346C3F30C039BB2DB00C6
:1021C000FB84BB6A5B889BB2184600F0CFFA0346DB
:1021D000BB84BB6A1B7803F00F03DBB29B0087F85C
:1021E000233097F823309BB2BA8C9A42C0F03F81DB
:1021F00097F823309BB2BA8CD31ABB84786801F06D
:10220000BDFB03463B849B4B1B881A463B8C134407
:102210000A2B10DD3B8C1946B86AFFF7B1FD034667
:10222000002B00F02B81934B1B881A463B8C1344E8
:102230000A2B00F32381904B1B683B6315E03B6B3B
:102240005A69BB6ADB689A420CD13B6B9A69BB6ADC
:102250001B699A4206D13B6B9A89BB6A9B889BB2E9
:102260009A4206D03B6B1B683B633B6B002BE6D16D
:1022700000E000BF3B6B002B09D13B8C1946B86ACC
:10228000FFF7E0FD38633B6B002B1CD1F9E0BB6A24
:10229000DB889BB2184600F069FA0346C3F30C03CF
:1022A000002B10D13B6BDB89184600F05FFA034628
:1022B000C3F30C03002B06D03B6B08331422B96A1E
:1022C00018460CF063FABB6ADB889BB203F020036C
:1022D000002B0CBF01230023DBB2FB61FB69002B49
:1022E0000ED0FA8CBB8C13447B837A8BFB8C9A4286
:1022F000C0F0A3807B8B4FF6EB72934200F29D807F
:10230000FA697968386BFFF7F9FD78617B69B3F199
:10231000FF3F00F09480574B1A883B8C13449AB2CD
:10232000544B1A80FB69002B0DD0FA8CBB8C1344E4
:102330007B823B6B7A8A9A833B6B9B7F43F00103E2
:10234000DAB23B6B9A777B69012B74D13B6B9B8B29
:1023500014333B823B6B5B685B681B687B633B6B46
:102360005B685B68BB623B6B083314221946B86A32
:102370000CF00CFA3B8A184600F0F8F903461A46AE
:10238000BB6A5A80BB6A00229A710022DA71BB6A6A
:1023900000229A720022DA721421B86A00F000FC5E
:1023A00003461A46BB6A5A813B6B5B687B600DE053
:1023B0007B6B5B68FB601421786B01F008FA796B2A
:1023C000786801F008FBFB681B687B637B6B002B64
:1023D000EED1294B1B683A6B9A4202D10023FB6273
:1023E00010E0254B1B68FB6207E0FB6A1B683A6B39
:1023F0009A4206D0FB6A1B68FB62FB6A002BF4D191
:1024000000E000BFF96A386BFFF756FD786801F00D
:10241000B5FA03463B84174B1B883A8C9A4201D984
:1024200008F06DFE134B1A883B8CD31A9AB2114BED
:102430001A807B6829E0002327E000BF00E000BF8E
:102440003B6B002B01D108F05AFE3B6B5B68002B05
:1024500016D1094B1B683A6B9A4201D008F04FFE27
:102460000021386BFFF728FD0BE000BF09E000BF3B
:1024700007E000BFB00A0020AC0A002000BF00E067
:1024800000BF786801F013FA002318463837BD46BC
:1024900080BD00BF80B500AF062000F093FC03466E
:1024A000184680BD80B582B000AF78607B68002B95
:1024B00001D108F024FE7968062000F0B3FC00BFCB
:1024C0000837BD4680BD80B584B000AF78607B68BA
:1024D000FB60FB68002B01D108F011FEFA687B68F5
:1024E0009A4201D008F00BFEFB685B69002B04D018
:1024F000FB685B69184601F0DAF9F868FFF7D2FF6C
:1025000000BF1037BD4680BD80B594B002AFF86003
:10251000B9607A600023A7F84630BB689B8C143BF7
:10252000002B00DA0733DB107B871423FB87FB6863
:102530005B687B637B6B3B633B6B1B7803F00F0338
:10254000DBB29B00DBB2142B02D06FF0050307E176
:10255000FB685B89132B02D86FF0050300E13B6B2E
:10256000DB889BB2184600F001F90346BB87BB8F9E
:10257000C3F30C03A7F84030BB8F03F40053FB6296
:10258000FB681B89143BA7F84230DFE07B8FDB0040
:102590009BB2B7F84220934228BF13467B854FF485
:1025A000207214210E2000F004FF78627B6A002B59
:1025B00000F0D3807B6A5B89132B01D808F09FFD64
:1025C0007B6A5B681422796B18460CF0DFF87B6A33
:1025D0005B683B637B8DA7F844305FE0FB685A89FA
:1025E000FB8FD31AFB83FB685B89FA8F9A4201D970
:1025F00008F085FDFA8BB7F84430934228BF1346A4
:10260000A7F84630B7F84630002B05D10023FB87EA
:10261000FB681B68FB6041E0FFF73CFFB861BB69EA
:10262000002B03D1786A01F042F997E0B869FB68A2
:102630005A68FB8F1344B7F84610B7F8462001924A
:10264000009303464122002000F0AFFF78617B69D0
:10265000002B06D1B869FFF725FF786A01F027F94A
:102660007CE0F86801F0A0F9BB69FA685A61BB69BF
:102670003D4A1A617969786A01F0ADF9B7F84420EA
:10268000B7F84630D31AA7F84430B7F84430002BD7
:1026900004D00023FB87FB681B68FB60B7F844305D
:1026A000002B9BD1FA8FB7F846301344FB87BB68E9
:1026B0009B8CA3F11302B7F842309A42CCBF01239E
:1026C0000023DBB23B62B7F84030C3F30C03BB8797
:1026D0003B6A002B02D0FB6A002B03D0BB8F43F474
:1026E0000053BB87BB8F184600F040F803461A46DC
:1026F0003B6BDA807B8D14339BB2184600F036F8C2
:1027000003461A463B6B5A803B6B00229A720022AA
:10271000DA721421386B00F043FA03461A463B6B19
:102720005A81BB685B697A68796AB8689847786A41
:1027300001F0BDF8B7F842207B8DD31AA7F84230DC
:10274000B7F840207B8F1344A7F84030B7F84230E9
:10275000002B7FF41BAF002302E000BF4FF0FF33DC
:1027600018464837BD4680BDC724000080B483B0FA
:1027700000AF0346FB80FB881B021AB2FB881B0AD2
:102780009BB21BB213431BB29BB218460C37BD461B
:1027900080BC704780B483B000AF78607B681A0655
:1027A0007B681B0203F47F031A437B681B0A03F454
:1027B0007F431A437B681B0E134318460C37BD46F4
:1027C00080BC704780B586B000AF78603960002368
:1027D0007B617B683B6117E03B691B789BB21B0206
:1027E000FB813B6901333B613B691B789AB2FB89F2
:1027F0001343FB813B6901333B61FB897A691344D5
:102800007B613B68023B3B603B68012BE4DC3B683F
:10281000002B08DD3B691B789BB21B02FB81FB8907
:102820007A6913447B617B691A0C7B699BB2134400
:102830007B617B691B0C1B04002B05D07B691A0C88
:102840007B699BB213447B617B699BB21846FFF79F
:102850008DFF034618461837BD4680BD80B586B04B
:1028600000AFF8607B600B46FB7213463B81002390
:102870003B61FB687B612BE07B695A687B695B8904
:1028800019461046FFF79EFF03461A467B6813441D
:102890007B607B681A0C7B689BB213447B607B690E
:1028A0005B8903F001039BB2002B0ED03B69002B28
:1028B0000CBF01230023DBB23B617B681B029AB291
:1028C0007B681B0ADBB213437B607B691B687B61FF
:1028D0007B69002BD0D13B69002B07D07B681B02A2
:1028E0009AB27B681B0ADBB213437B60FB7A9BB214
:1028F0001846FFF73BFF03461A467B6813447B608C
:102900003B891846FFF732FF03461A467B6813449B
:102910007B607B681A0C7B689BB213447B607B688E
:102920001A0C7B689BB213447B607B689BB2DB43D1
:102930009BB218461837BD4680BD80B586B000AF43
:10294000F8607B600B46FB7213463B817B681B681B
:102950007B617B699BB23B617B691B0C3A691344C9
:102960003B613B6A1B687B617B699BB23A6913449C
:102970003B617B691B0C3A6913443B613B691A0C50
:102980003B699BB213443B613B691A0C3B699BB2A8
:1029900013443B613A89F97A3B69F868FFF75EFFB7
:1029A000034618461837BD4680BD80B586B002AFD5
:1029B000F8607B600B46FB7213463B813A89F97ADB
:1029C000BB6900937B68F868FFF7B7FF03461846BA
:1029D0001037BD4680BD80B588B000AFF8600846AE
:1029E00011461A460346FB720B463B811346FB8099
:1029F0000023BB61FB68FB613EE0FB695B89FB82F6
:102A0000FA8AFB889A4201D9FB88FB82FB695B68E2
:102A1000FA8A11461846FFF7D5FE03461A46BB6AE6
:102A20001344BB62FA88FB8AD31AFB80FB8847F603
:102A3000FE72934201D908F062FBBB6A1A0CBB6AB2
:102A40009BB21344BB62FB695B8903F001039BB239
:102A5000002B0ED0BB69002B0CBF01230023DBB27F
:102A6000BB61BB6A1B029AB2BB6A1B0ADBB213438F
:102A7000BB62FB691B68FB61FB69002B02D0FB8812
:102A8000002BBAD1BB69002B07D0BB6A1B029AB2DC
:102A9000BB6A1B0ADBB21343BB62FB7A9BB21846CC
:102AA000FFF764FE03461A46BB6A1344BB623B89C8
:102AB0001846FFF75BFE03461A46BB6A1344BB6227
:102AC000BB6A1A0CBB6A9BB21344BB62BB6A1A0C8A
:102AD000BB6A9BB21344BB62BB6A9BB2DB439BB233
:102AE00018462037BD4680BD80B588B002AFF8607B
:102AF000084611461A460346FB720B463B811346B5
:102B0000FB803B6A1B687B617B699BB23B617B6995
:102B10001B0C3A6913443B617B6A1B687B617B69D0
:102B20009BB23A6913443B617B691B0C3A691344BD
:102B30003B613B691A0C3B699BB213443B613B69A7
:102B40001A0C3B699BB213443B61F8883A89F97AC5
:102B50003B6900930346F868FFF73DFF03461846BC
:102B60001837BD4680BD80B586B002AFF860084614
:102B700011461A460346FB720B463B811346FB8007
:102B8000F8883A89F97AFB690193BB690093034697
:102B9000F868FFF7A9FF034618461037BD4680BD09
:102BA00080B582B000AF78600B467B807B88194689
:102BB0007868FFF707FE0346DB439BB218460837E9
:102BC000BD4680BD80B586B000AF78600023FB6055
:102BD00000237B617B683B612BE03B695A683B6962
:102BE0005B8919461046FFF7EDFD03461A467B69DF
:102BF00013447B617B691A0C7B699BB213447B6134
:102C00003B695B8903F001039BB2002B0ED0FB688C
:102C1000002B0CBF01230023DBB2FB607B691B028E
:102C20009AB27B691B0ADBB213437B613B691B6869
:102C30003B613B69002BD0D1FB68002B07D07B693F
:102C40001B029AB27B691B0ADBB213437B617B696F
:102C50009BB2DB439BB218461837BD4680BD80B59A
:102C600084B000AFF860B9601346FB80FB881A4659
:102C7000B968F8680BF08AFDFB881946F868FFF719
:102C8000A1FD034618461037BD4680BD80B582B011
:102C900000AF00237B6000F00EF800F05BF800F05E
:102CA000DFF807F071F801F087F906F0EDFF00BFDB
:102CB0000837BD4680BD80B400AF00BFBD4680BCB4
:102CC000704780B483B000AF786039607B68184685
:102CD0000C37BD4680BC704780B584B000AF7860CB
:102CE00078680BF063FA0346FB60FB68002B09D0A1
:102CF000FB68033323F003031A46FB68934201D0B9
:102D000008F0FDF9FB6818461037BD4680BD80B558
:102D100082B000AF78607B68002B01D108F0EFF93A
:102D20007B68033323F003031A467B68934201D088
:102D300008F0E5F978680BF041FA00BF0837BD46A6
:102D400080BD80B483B000AF786000BF0C37BD4653
:102D500080BC704780B582B000AF0023FB8009E0E3
:102D6000FB88084A52F823301846FFF7EAFFFB8831
:102D70000133FB80FB88092BF2D900BF00BF083765
:102D8000BD4680BDB06B010080B584B000AF7860F7
:102D90007B681B88033323F003031846FFF79CFF6F
:102DA000F860FB68002B08D0FB6803F00303002BDE
:102DB00001D008F0A4F9FB6800E0002318461037A2
:102DC000BD4680BD80B584B000AF0346FB71FB7982
:102DD000092B01D9002308E0FB79064A52F8233079
:102DE0001846FFF7D1FFF860FB6818461037BD465C
:102DF00080BD00BFB06B010080B584B000AF7860CB
:102E000039603B6803F00303002B01D008F077F929
:102E10003B68FB60F868FFF77AFF00BF1037BD46DC
:102E200080BDFFFF80B582B000AF03463960FB7103
:102E3000FB79092B0BD83B68002B0AD0FB79074A9A
:102E400052F8233039681846FFF7D6FF02E000BF7A
:102E500000E000BF0837BD4680BD00BFB06B010079
:102E600080B400AF00BFBD4680BC704780B586B05F
:102E700000AFF860B9607A603B60FB68002B01D15D
:102E800000238EE07B6A002B01D1002389E0BB6820
:102E9000002B01D1454BBB607B68002B01D1434B1C
:102EA0007B603B68002B01D1404B3B60FB680022FC
:102EB0005A60FB6800229A60FB680022DA60FB68B7
:102EC0003B4A5A61FB6800229A84FB68002283F81F
:102ED0002D20FB683A6ADA61364B1A78FB6883F872
:102EE0003020FB68BA6A1A613B687A68B968F8688A
:102EF00000F0EEF87B6AF86898470346002B01D093
:102F000000234EE0FB6893F83030FF2B03D1FB68C1
:102F1000002283F8302000233B61274B1B687B6134
:102F200021E07A69FB689A4201D108F0E8F83B6930
:102F300001333B613B69FF2B01DD08F0E0F87B6961
:102F400093F83020FB6893F830309A4208D1FB6840
:102F500093F830300133DAB2FB6883F8302005E0B3
:102F60007B691B687B617B69002BDAD17B69002B55
:102F7000C8D1FB6893F83030FE2B03D10D4B0022F3
:102F80001A7006E0FB6893F830300133DAB2094B6F
:102F90001A70094B1A68FB681A60074AFB681360CD
:102FA000FB6818461837BD4680BD00BF846B010022
:102FB000A5320000D40A0020CC0A002080B582B0DF
:102FC00000AF786039603968786802F0E7FB3968EB
:102FD000786807F0D1FA3968786800F0BFFF00BF61
:102FE0000837BD4680BD80B586B000AFF860B960D7
:102FF0007A60BB68002B01D108F081F87B68002B58
:1030000001D108F07CF8BB681A68FB6804331B68C0
:103010009A421CD0BB681B687B61FB6804331A684A
:103020007B681A6007F1140319467868FFF7C6FF3A
:10303000BB68002B02D0BB681B6800E00023FA6865
:1030400053600121F86800F0BBF8012300E0002381
:1030500018461837BD4680BD80B485B000AFF86013
:10306000B9607A60BB681A68FB6808331B689A42CB
:103070000AD0BB68002B02D0BB681B6800E00023AD
:10308000FA689360012300E0002318461437BD4618
:1030900080BC704780B485B000AFF860B9607A60DA
:1030A000BB681A68FB680C331B689A420AD0BB687D
:1030B000002B02D0BB681B6800E00023FA68D360D5
:1030C000012300E0002318461437BD4680BC70473A
:1030D00080B588B000AFF860B9607A603B600023CB
:1030E000FB610023BB61BB68002B01D11C4BBB60A3
:1030F0007B68002B01D11A4B7B603B68002B01D110
:10310000174B3B60BB68002B03D0BB681B68002BD0
:1031100001D1012300E000237B617B69002B06D0F5
:1031200007F110031A46B968F868FFF75CFFFA69FF
:103130007968F868FFF790FFBA693968F868FFF7AF
:10314000A9FF7B69002B06D107F110031A46B96865
:10315000F868FFF748FF00BF2037BD4680BD00BFBD
:10316000846B010080B483B000AF7860034A7B6851
:10317000136000BF0C37BD4680BC7047D00A0020EA
:1031800080B582B000AF78607B68002B14D07B687C
:1031900093F82D3003F00103002B0ED17B6893F8D8
:1031A0002D3043F00103DAB27B6883F82D20032130
:1031B000786800F005F800E000BF0837BD4680BD24
:1031C00080B582B000AF78600B46FB707B68002B47
:1031D00001D107F094FF7B6893F82D3003F00403CE
:1031E000002B1ED07B6893F82D3003F00103002BD9
:1031F00017D0FB7803F00103002B13D07B68043356
:103200001B68002B0ED07B6893F82D3003F0080369
:10321000002B07D07B68043319467868FDF782FFDE
:1032200000E000BF0837BD4680BD80B582B000AF6A
:1032300078607B68002B14D07B6893F82D3003F006
:103240000403002B0ED17B6893F82D3043F0040368
:10325000DAB27B6883F82D2003217868FFF7B0FF8E
:1032600000E000BF0837BD4680BD80B483B000AF2A
:1032700078607B68002B10D07B6893F82D3003F0CA
:103280000403002B0AD07B6893F82D3023F004034D
:10329000DAB27B6883F82D2000E000BF0C37BD4612
:1032A00080BC704780B485B000AFF860B9607A60C8
:1032B0006FF00B0318461437BD4680BC7047FFFF04
:1032C00080B485B000AF0346FB71FB79002B13D0AF
:1032D0000C4B1B68FB600CE0FB6893F8303001334B
:1032E000DBB2FA799A4201D1FB6806E0FB681B6801
:1032F000FB60FB68002BEFD1002318461437BD4656
:1033000080BC7047CC0A002080B582B000AF0C4B67
:1033100000221A700B4B1B687B600AE07B685B6FB6
:10332000002B03D0786802F077FA05E07B68DB6851
:103330007B607B68002BF1D10837BD4680BD00BFA4
:10334000D50A0020E80A002080B400AF034B012218
:103350001A7000BFBD4680BC704700BFD50A002070
:1033600080B485B000AFF860B96011461A460B46CC
:10337000FB801346BB80FB6800221A60FB68BA68BA
:103380005A60FB68FA881A81FB68BA885A813B8BBD
:10339000DAB2FB681A73FB683A7F5A73FB68012242
:1033A0009A73FB680022DA7300BF1437BD4680BCF5
:1033B000704780B58CB002AF0346FB710B46BB80F3
:1033C00013467B80FB797B847B88B3F5207F77D0A5
:1033D000B3F5207F00F3B680B3F5C17F10D0B3F50D
:1033E000C17F00F3AF80012B02D0412B40F0AA80B7
:1033F0007A88BB881946002000F0AEF87862A6E013
:1034000000237B620023FB61BB887B830920FFF7DD
:10341000D9FCF860FB68002B09D1FFF795FF7B6AA8
:10342000002B02D0786A00F042FA002390E07B8CF7
:1034300003339BB223F003039BB2C3F5BD63043394
:103440009BB27A8B934228BF13467B817B8C1033CF
:10345000FA681344033323F00303184679897A8BFF
:10346000002301937B8800930B460146F868FFF721
:1034700077FFFB685B6803F00303002B01D007F0C4
:103480003EFE7B8C033323F0030340F2EC52934265
:1034900001D107F034FE7B6A002B02D1FB687B620E
:1034A00002E0FB69FA681A60FB68FB617A8B7B8932
:1034B000D31A7B8300237B847B8B002BA6D146E031
:1034C0007B8C033323F00302BB88033323F0030315
:1034D00013447B617B6910333B61BB88033323F06A
:1034E00003037A699A4206D3BB88033323F00303AC
:1034F0003A699A4201D200232AE03869FFF7ECFBCF
:1035000078627B6A002B01D1002321E07B8C103391
:103510007A6A1344033323F003031846B988BA8840
:10352000002301937B8800930B460146786AFFF7DE
:1035300017FF7B6A5B6803F00303002B06D007F0DC
:10354000DEFD03E007F0DBFD002301E000BF7B6A46
:1035500018462837BD4680BD80B586B002AF78607A
:103560000B467B8013463B803B88412B04D03B8835
:10357000012B01D007F0C3FD0820FFF723FCF86002
:10358000FB68002B01D100230BE079887A880023A7
:1035900001933B8800930B467968F868FFF7E0FEDB
:1035A000FB6818461037BD4680BD80B588B002AFB5
:1035B0007B600346FB730B46BB8113467B81FB7B21
:1035C0007B827B8A033323F00302BB891A44BB8CC2
:1035D0009A4201D9002318E03B6A002B07D07B8A6E
:1035E000033323F003033A6A13447B6101E00023B1
:1035F0007B617868B989BA89022301937B8900933A
:103600000B467969FFF7ACFE7B6818461837BD4654
:1036100080BD80B586B000AF78600B467B807B684C
:10362000002B01D107F06BFD7B681B897A889A42D9
:103630005DD27B681A897B88D31A3B827B887B8228
:103640007B687B6113E07B695B897A8AD31A7B8212
:103650007B691A893B8AD31A9AB27B691A817B6982
:103660001B687B617B69002B01D107F048FD7B69FA
:103670005B897A8A9A42E6D87B691B7B03F00F0349
:10368000002B20D17B695B897A8A9A421BD07B69A7
:103690005B7B03F00203002B15D17B695A687B69C1
:1036A000D21A7B8A134419467869FFF70AFBF8603F
:1036B000FB68002B01D107F022FDFA687B699A4272
:1036C00001D007F01CFD7B697A8A5A817B695A898F
:1036D0007B691A817B691B68002B04D07B691B689E
:1036E000184600F0E4F87B6900221A6000E000BF91
:1036F0001837BD4680BD80B586B000AFF860B960B0
:103700001346FB71FB68002B01D107F0F8FCFB6846
:10371000002B03D0BB68B3F5803F01D3012343E006
:10372000BB68002B01D100233EE0BB687B82FB68B5
:103730001A897B8A13449BB27A8A9A4201D901235F
:1037400032E0FB681B7B3B823B8A03F08003002B4B
:103750000CD0FB685A68BB685B4213447B61FB6812
:1037600010337A699A420DD201231DE0FB79002BB8
:1037700006D0FB685A68BB685B4213447B6101E07A
:10378000012311E0FB687A695A60FB685A897B8AD9
:1037900013449AB2FB685A81FB681A897B8A1344E6
:1037A0009AB2FB681A81002318461837BD4680BDBF
:1037B00080B582B000AF78603960002239687868DF
:1037C000FFF799FF034618460837BD4680BD80B510
:1037D00084B000AF786039607B68002B01D107F0BE
:1037E0008EFC7B68002B03D03B68B3F5803F01D390
:1037F000012325E03B68002B01D1002320E03B683A
:10380000FB817B685B89FA899A4201D9012317E021
:103810007B685B68BB607B685A683B681A447B685E
:103820005A607B685A89FB89D31A9AB27B685A819D
:103830007B681A89FB89D31A9AB27B681A810023A4
:1038400018461037BD4680BD80B582B000AF7860A5
:103850000B467B8013467B70B7F90230002B08DAE9
:10386000B7F902305B4219467868FFF7B0FF0346AC
:1038700007E0B7F902307A7819467868FFF73BFF1E
:10388000034618460837BD4680BD80B582B000AFFC
:1038900078600B467B80B7F90230012219467868C0
:1038A000FFF7D2FF034618460837BD4680BD80B5F6
:1038B00086B000AF78607B68002B06D17B68002B58
:1038C00001D107F01CFC002354E00023FB754DE000
:1038D0007B689B7B002B01D107F011FC7B689B7BF5
:1038E000013BDAB27B689A737B689B7BBB75BB7DBF
:1038F000002B39D17B681B683B617B681B7B03F025
:103900000F03FB737B685B7B03F00203002B0CD07F
:103910007B68BB60BB681B69002B01D107F0EFFB24
:10392000BB681B697868984718E0FB7B022B04D1C1
:1039300079680920FFF776FA10E0FB7B012B04D1B0
:1039400079680820FFF76EFA08E0FB7B002B03D1B3
:103950007868FFF7DCF901E007F0D1FBFB7D01336C
:10396000FB753B697B6001E000237B607B68002B7B
:10397000AED1FB7D18461837BD4680BD80B485B0FA
:1039800000AF78600023FB8105E0FB890133FB81F8
:103990007B681B687B607B68002BF6D1FB8918462F
:1039A0001437BD4680BC704780B582B000AF7860E8
:1039B0007B68002B0BD07B689B7B0133DAB27B6882
:1039C0009A737B689B7B002B01D107F098FB00BFAB
:1039D0000837BD4680BD80B584B000AF78603960DF
:1039E0007B68002B2ED03B68002B2BD07B68FB60C4
:1039F0000AE0FB681A893B681B8913449AB2FB688A
:103A00001A81FB681B68FB60FB681B68002BF0D108
:103A1000FB681A89FB685B899A4201D007F06FFB4B
:103A2000FB681B68002B01D007F069FBFB681A8953
:103A30003B681B8913449AB2FB681A81FB683A6899
:103A40001A6000E000BF1037BD4680BD80B582B06F
:103A500000AF7860396039687868FFF7BCFF386874
:103A6000FFF7A2FF00BF0837BD4680BD80B582B01A
:103A700000AF786039603B68002B02D16FF00F0314
:103A800007E03B681A8900233968786800F005F878
:103A9000034618460837BD4680BD80B588B000AFE4
:103AA000F860B96011461A460B46FB801346BB808E
:103AB000BB88FB610023BB61BB68002B04D0BB68E3
:103AC0001B89FA889A4202D96FF00F03A2E0FB68C3
:103AD000002B07D0FB681B891946BA88FB88134462
:103AE000994202DA6FF00F0394E0FB685B891A4693
:103AF000FB69D21ABB685B891946BB69CB1A9A422B
:103B000006D3BB685B891A46BB69D31A7B6105E0A3
:103B1000FB685B891A46FB69D31A7B61FB887A696B
:103B2000934228BF13467B61FB685A68FB69D01833
:103B3000BB685A68BB6913447A6919460AF026FEC5
:103B4000FA697B691344FB61BA697B691344BB6101
:103B50007B699BB2FA88D31AFB80FB685B891A46A3
:103B6000FB69934201D907F0CAFABB685B891A4620
:103B7000BB69934201D907F0C2FABB685B891A4658
:103B8000BB6993420DD30023BB61BB681B68BB605C
:103B9000BB68002B05D1FB88002B02D06FF00F0310
:103BA00038E0FB685B891A46FB6993420DD100231C
:103BB000FB61FB681B68FB60FB68002B05D1FB8881
:103BC000002B02D06FF00F0324E0BB68002B0CD059
:103BD000BB685A89BB681B899A4206D1BB681B68BF
:103BE000002B02D06FF0050314E0FB68002B0CD013
:103BF000FB685A89FB681B899A4206D1FB681B68DF
:103C0000002B02D06FF0050304E0FB88002B7FF44B
:103C10006CAF002318462037BD4680BD80B588B004
:103C200000AFF860B96011461A460B46FB80134698
:103C3000BB8000237B830023FB82FB68002B01D128
:103C4000002343E0BB68002B01D100233EE0FB686A
:103C5000FB6134E0BB88002B0AD0FB695B89BA8822
:103C60009A4205D3FB695B89BA88D31ABB8023E0EB
:103C7000FB695A89BB88D31A3B833A8BFB889A42EB
:103C800001D9FB883B837B8BBA68D018FB695A68E3
:103C9000BB8813443A8B19460AF078FDFA8A3B8BAD
:103CA0001344FB827A8B3B8B13447B83FA883B8BD8
:103CB000D31AFB800023BB80FB691B68FB61FB8878
:103CC000002B02D0FB69002BC4D1FB8A1846203799
:103CD000BD4680BD80B588B000AFF860B9601346BE
:103CE000FB80FB887B6100233B61FB68002B02D1DA
:103CF0006FF00F034FE0BB68002B02D16FF00F0392
:103D000049E0FB681B89FA889A4202D94FF0FF33D9
:103D100041E0FB68002B07D0BB68002B04D0FB6898
:103D20001B89FA889A4202D96FF00F0333E0FB68CF
:103D3000FB6123E0FB69002B01D107F0E0F97B690F
:103D4000BB61FB695B891A46BB69934202D9FB6977
:103D50005B89BB61FB695868BA683B691344BA69FF
:103D600019460AF013FD7A69BB69D31A7B613A6977
:103D7000BB6913443B61FB691B68FB617B69002BDA
:103D8000D8D17B69002B03D1FB883A699A4201D0D4
:103D900007F0B5F9002318462037BD4680BD80B531
:103DA00084B000AF03463A60FB710B46BB803B68B2
:103DB0001989BA88FB791846FFF7FBFAF860FB68A7
:103DC000002B01D100230CE03968F868FFF74EFEA4
:103DD0000346FB7297F90B30002B01D007F08FF9E7
:103DE000FB6818461037BD4680BDFFFF80B483B026
:103DF00000AF78600B46FB707B681B7A002B0BD002
:103E00007B681A7A184B5B6893F830300133DBB269
:103E10009A4201D0002321E0FB78002B0ED07B6872
:103E20005B7A03F02003002B17D07B68002B03D0B4
:103E30007B681B68002B10D101230FE07B68002BEF
:103E400009D07B681B68002B05D07B681A68064B7D
:103E50005B699A4201D1012300E0002318460C3728
:103E6000BD4680BC704700BFB40A002090B589B041
:103E700000AF786039600023FB75354B5B69344ACD
:103E8000126811461846FDF70BFE0346BB757B68AA
:103E90005B685B7ABB820023BB612E4B1B68FB61B6
:103EA0004EE0FB691B7C1A46B7F914309A4242D1A6
:103EB000BB7D1946F869FFF799FF0346002B3AD0FE
:103EC000FB695B7C03F00103002B05D0FB695A689A
:103ED0001F4B1B699A422ED1FB695B69002B2AD0CC
:103EE0007B685B683B610223FB75FB695C69FB696E
:103EF0009869194B7A68F969A0470346FB73FB7B05
:103F0000002B11D000237B60BB69002B0AD0FB691A
:103F1000DA68BB69DA600F4B1A68FB69DA600D4A30
:103F2000FB69136001230FE07B685B683A699A4282
:103F300001D007F0E4F8FB69BB61FB69DB68FB615A
:103F4000FB69002BADD1FB7D18462437BD4690BDE3
:103F5000B40A0020D80A0020C40A002080B485B02A
:103F600000AF786039607B68002B1ED07B681B68CF
:103F7000002B1AD03B68002B17D03B681B68002B26
:103F800013D00C4B1B68FB600CE0FB681A687B6865
:103F90001B689A4203D13B681A68FB681A60FB6889
:103FA000DB68FB60FB68002BEFD100BF1437BD4618
:103FB00080BC7047D80A002080B400AF00BFBD4667
:103FC00080BC704780B582B000AF78607B681B7D95
:103FD000012B01D107F093F879680220FEF722FF48
:103FE00000BF0837BD4680BD80B582B000AF7860A5
:103FF0007B681B7D012B01D107F081F879680320D4
:10400000FEF710FF00BF0837BD4680BD80B500AF8A
:1040100000F054FF074B1B780133DAB2054B1A70DE
:10402000044B1B7803F00103002B01D000F058FC77
:1040300000BF80BDF10A002080B584B000AF786079
:1040400039603B68002B01D107F059F87B68FB60B1
:104050000AE0FB68DB6F3A689A4202D1FB680022F3
:10406000DA67FB68DB68FB60FB68002BF1D100BFFF
:1040700000BF1037BD4680BD80B584B000AF78600A
:104080007B68002B01D107F03AF87B681B7D012B80
:1040900001D007F034F80123FB600BE0094AFB680C
:1040A00052F823301B6879681846FFF7C5FFFB6894
:1040B0000133FB60FB68032BF0D900BF00BF103752
:1040C000BD4680BDF06B0100B0B588B004AF78602C
:1040D0000B46FB707B68002B01D107F010F8FB78D2
:1040E000002B62D07B681B7D042B03D07B681B7D7B
:1040F000072B5AD17B689B6F002B05D17B681B8DEA
:1041000041F2D062934250D07B685B8B03F0100386
:10411000002B01D106F0F3FF7B68186D7B685C6AA9
:104120007D687B6804337A68D28A7968098B02914A
:10413000019200932B4622460146786805F05AFB0F
:10414000786801F00BFA434B1B687A689A4205D1F4
:10415000404B1B68DB683F4A136013E03D4B1B6814
:10416000FB600CE0FB68DB687A689A4204D17B68EC
:10417000DA68FB68DA6005E0FB68DB68FB60FB6817
:10418000002BEFD17B680022DA60334B01221A70DA
:10419000324B1B687A689A4202D103F045FD02E077
:1041A0007868FFF70FFF002350E07B681B7D022B30
:1041B0003BD0022B44DC002B02D0012B2AD03FE065
:1041C0007B68DB8A002B21D0254B1B687A689A42DA
:1041D00005D1234B1B68DB68214A136013E0204B99
:1041E0001B68BB600CE0BB68DB687A689A4204D14C
:1041F0007B68DA68BB68DA6005E0BB68DB68BB60D7
:10420000BB68002BEFD17B680022DA607868FFF78B
:10421000D9FE1AE07868FFF72FFF7968114801F09E
:10422000E1F97868FFF7E0FE0FE07968094801F0EE
:10423000D9F9094B01221A707868FFF7C3FE04E030
:10424000786800F011F8034600E0002318461037A4
:10425000BD46B0BDE80A0020F00A00202C0B00206B
:10426000E00A0020E40A002080B584B000AF786046
:104270007B68002B01D106F042FF7B681B7D072B7A
:1042800020D0072B2BDC032B02D0042B0DD026E0F3
:10429000786804F0C5FB0346FB7397F90F30002BD9
:1042A0001FD17B6805221A751BE0786804F0B8FB03
:1042B0000346FB7397F90F30002B14D17B6805225E
:1042C0001A7510E0786804F0ABFB0346FB7397F9AE
:1042D0000F30002B09D17B6809221A7505E00023F5
:1042E0001CE000BF02E000BF00E000BF97F90F3004
:1042F000002B03D1786804F097FC0DE097F90F309C
:10430000B3F1FF3F08D17B685B8B43F008039AB29F
:104310007B685A83002301E097F90F301846103765
:10432000BD4680BD80B582B000AF78607B68002B51
:1043300002D16FF00F030FE07B681B7D012B06D0CD
:104340007B685B8B43F010039AB27B685A83012130
:104350007868FFF7B9FE034618460837BD4680BDAA
:1043600080B58EB004AF786039607B68002B00F0B8
:1043700096807B681B7D012B01D106F0C0FE7B6817
:104380001B7D0A2B07D17968474801F02BF9786823
:10439000FFF718FE84E000237B6200237B847B68A8
:1043A0001B6DBB617B685B6A7B617B68D3F8903077
:1043B0003B617B681B69FB607B681B7D002B26D102
:1043C0007B68DB8A002B2ED0384B1B687A689A42B8
:1043D00005D1364B1B68DB68344A136013E0334B5E
:1043E0001B68FB610CE0FB69DB687A689A4204D1C8
:1043F0007B68DA68FB69DA6005E0FB69DB68FB6112
:10440000FB69002BEFD17B680022DA600BE03B6890
:104410007B627B68DB8A7B847968254801F0E2F85F
:10442000244B01221A707B681B6F002B04D07B6821
:104430001B6F184600F016FE7B68DB6E002B04D065
:104440007B68DB6E184600F00DFE7B685B6F002B0F
:1044500004D07B685B6F184600F004FE7B6A002B7B
:104460000ED079687B6804337A68128B02927A8C5A
:10447000019200930B467A69B969786805F0BAF938
:104480007B681B7DFB727868FFF79CFD3B69002B06
:1044900006D03B696FF00C01F868984700E000BF58
:1044A0002837BD4680BD00BFEC0A0020E00A00208E
:1044B000E80A0020F00A002080B582B000AF7860E2
:1044C00001217868FFF74CFF00BF0837BD4680BD6B
:1044D00080B588B000AFF860B9601346FB80042354
:1044E0007B61BB68002B01D1374BBB60FB68002BA5
:1044F00002D16FF00F0363E0FB681B7D002B02D03D
:104500006FF005035CE0FB88002B09D100F0A2F9F5
:104510000346FB80FB88002B35D16FF001034FE091
:104520000023FB612BE0294AFB6952F823301B680A
:10453000BB611EE0BB69DB8AFA889A4216D1BB696F
:10454000002B10D0BB691B68002B0CD0BB68002B64
:1045500009D0BB681B68002B05D0BB691A68BB6813
:104560001B689A4202D16FF0070329E0BB69DB6840
:10457000BB61BB69002BDDD1FB690133FB61FA69CB
:104580007B699A42CFDBBB68002B0CD0BB681B68F1
:10459000002B08D0BB68002B02D0BB681B6800E072
:1045A0000023FA681360FB68FA88DA82084B1A68FD
:1045B000FB68DA60064AFB68136005F0AFFA002377
:1045C00018462037BD4680BD846B0100F06B0100AA
:1045D000E00A002080B584B000AFF860B9601346EF
:1045E000FB71BB68002B01D106F089FDB868FFF7AD
:1045F00063FF6FF00C0318461037BD4680BD80B5D1
:1046000082B000AF78600B46FB70FB780022194641
:10461000786800F005F8034618460837BD4680BDA7
:1046200080B588B000AFF8600B467A60FB7200235B
:10463000FB61FB68002B02D1F023FB7673E0FB6883
:104640001B7D002B02D0F123FB766CE0FB681B7D09
:10465000012B04D1FB68FB61F723FB7663E00320A9
:10466000FEF7B0FBF861FB69002B02D1FF23FB765C
:1046700059E0FB681A69FB691A61FB68DA8AFB6911
:10468000DA82FB6901221A75FB685A7DFB695A754B
:10469000FB685A7AFB695A72FB681A7AFB691A72CC
:1046A000FB68DA7AFB69DA72FB689A7AFB699A72BC
:1046B000FB681A68FB691A60FB68DB8A002B21D053
:1046C0001E4B1B68FA689A4205D11C4B1B68DB68BD
:1046D0001A4A136013E0194B1B687B610CE07B697D
:1046E000DB68FA689A4204D1FB68DA687B69DA60B1
:1046F00005E07B69DB687B617B69002BEFD1FB68A0
:104700000022DA60F868FFF75DFCFB690C4A9A61E9
:104710000C4B1A68FB69DA600A4AFB69136005F002
:10472000FDF90023FB767B68002B02D07B68FA7EC4
:104730001A70FB6918462037BD4680BDE00A00208C
:10474000D5450000E40A002080B584B000AF786051
:104750007B68002B01D106F0D2FC7B685B6A7A682B
:10476000128D1344FB607B68DB6A7A68528E40F6D8
:1047700068318A4228BF0A4692B21344FA68D31AB3
:10478000002B08DB7B681A8D7B685A857B68DB6AA7
:10479000FA68D31A1BE07B68DA6A7B685B6AD31A13
:1047A000002B03DA7B6800225A850FE07B68DA6A07
:1047B0007B685B6AD31ABB60BB68B3F5803F01D3EB
:1047C00006F09DFCBB689AB27B685A8500231846A8
:1047D0001037BD4680BD80B584B000AF78600B4611
:1047E0007B807B68002B30D07B681B7D012B01D147
:1047F00006F085FC7B681A8D7B881344FB81FB895E
:1048000041F2D062934204D87B681B8DFA899A42A8
:1048100004D27B6841F2D0621A8502E07B68FA8993
:104820001A857868FFF790FFB860BB6840F2B35212
:1048300093420BD97B685B8B43F002039AB27B688F
:104840005A83786804F0F0F900E000BF1037BD46E5
:1048500080BDFFFF80B483B000AF0023BB801E4B40
:104860001B8801339AB21C4B1A801B4B1B884FF6D6
:10487000FF72934203D1184B4FF440421A80002339
:10488000FB711EE0FB79154A52F823301B683B6030
:1048900011E03B68DA8A104B1B889A4208D1BB882A
:1048A0000133BB80BB88B3F5804FD8D300230DE024
:1048B0003B68DB683B603B68002BEAD1FB79013346
:1048C000FB71FB79032BDDD9034B1B8818460C3792
:1048D000BD4680BC704700BF00000020F06B0100A7
:1048E000B0B590B004AF002387F82530884B1B6823
:1048F0000133874A1360874B1B780133DAB2854B4B
:104900001A700023BB62844B1B68FB626FE2FB6A78
:104910001B7D002B01D106F0F2FBFB6A1B7D012BF6
:1049200001D106F0ECFBFB6A1B7D0A2B01D106F0DE
:10493000E6FBFB6A9A7F774B1B789A4205D1FB6AAC
:10494000BB62FB6ADB68FB6251E2724B1A78FB6A5E
:104950009A77002387F82730002387F82630FB6AF0
:104960001B7D022B0AD1FB6A93F84230052B05D937
:1049700097F82730013387F8273007E1FB6A93F86F
:1049800042300B2B05D997F82730013387F82730B1
:10499000FCE0FB6A93F89930002B6BD0FB6A1B6F2D
:1049A000002B01D006F0ABFBFB6ADB6E002B01D1C4
:1049B00006F0A5FBFB6A93F89A300B2B05D997F804
:1049C0002730013387F82730E0E0FB6A93F899300D
:1049D000013B524AD35C7B74FB6A93F898307A7C33
:1049E0009A4207D9FB6A93F898300133DAB2FB6A2E
:1049F00083F89820FB6A93F898307A7C9A4200F208
:104A0000C58001233B62FB6AB3F86030002B08D1FC
:104A1000F86A04F0C1FF0346002B14D000233B6268
:104A200011E0FB6AB3F860301946F86A03F065FEDE
:104A30000346002B07D1F86A04F0F6F80346002B72
:104A400001D100233B623B6A002B00F09F80FB6A90
:104A5000002283F89820FB6A93F89930062B00F225
:104A60009580FB6A93F899300133DAB2FB6A83F8D8
:104A700099208BE0FB6AB3F93030002B0FDBFB6A27
:104A8000B3F9303047F6FF72934208D0FB6AB3F9AE
:104A900030309BB201339BB21AB2FB6A1A86FB6AB2
:104AA000B3F93020FB6AB3F940309A426EDBF86A02
:104AB00004F0E6FB0346002B07D0FB6A1B6F002BBC
:104AC00064D1FB6ADB6E002B60D0FB6A1B7D022B7E
:104AD0002DD0FB6A93F842300C2B28BF0C23FB76B9
:104AE000FB6AB3F93C30DB101BB21A46FB6AB3F920
:104AF0003E301344FA7E0A498A5C93407B617B69AD
:104B000047F6FE7293420DDC7B691AB20CE000BFDF
:104B1000DC0A0020F20A0020E80A0020E86B01000D
:104B2000D86B010047F6FF72FB6AA3F84020FB6ACE
:104B300000221A86FB6AB3F86020FB6AB3F848309B
:104B4000934228BF13467B827B8A5B089AB2FB6A3A
:104B5000A3F84A20FB6AB3F84A20FB6A5B8E5B002D
:104B60009BB29A4206D2FB6A5B8E5B009AB2FB6AEA
:104B7000A3F84A20FB6A5A8EFB6AA3F84820FB6A16
:104B80000022A3F86A20F86A04F0DFFBFB6A1B7DB1
:104B9000062B11D1FB6A5B8B03F01003002B0BD0AB
:104BA000984B1A68FB6A1B6AD31A282B04D997F80A
:104BB0002730013387F82730FB6A5B7A03F008035C
:104BC000002B4CD0FB6A1B7D042B03D0FB6A1B7DA2
:104BD000072B44D18B4B1A68FB6A1B6AD21AFB6AFB
:104BE000D3F8943003F5242303F6B8438649A1FB98
:104BF00003135B099A420AD997F82730013387F8E3
:104C0000273097F82630013387F8263027E07D4B90
:104C10001A68FB6A1B6AD21AFB6AD3F89410FB6A03
:104C200093F89B301846794B00FB03F30B4476490D
:104C3000A1FB03135B099A4211D9F86A04F077FECD
:104C4000034687F8253097F92530002B07D1FB6AFA
:104C500093F89B300133DAB2FB6A83F89B20FB6A3E
:104C60005B6F002B11D0674B1A68FB6A1B6AD21A64
:104C7000FB6AB3F9403019460B465B000B445B00FE
:104C80009A4202D3F86A00F0C7FDFB6A1B7D032B32
:104C90000BD15C4B1A68FB6A1B6AD31A282B04D908
:104CA00097F82730013387F82730FB6A1B7D092BE3
:104CB0000BD1544B1A68FB6A1B6AD31AF02B04D928
:104CC00097F82730013387F8273097F82730002BE3
:104CD00056D0FB6AD3F89030FB60F86A00F03EFCD7
:104CE000BB6A002B0BD04A4B1B68FA6A9A4201D16F
:104CF00006F005FAFB6ADA68BB6ADA600AE0444B40
:104D00001B68FA6A9A4201D006F0F9F9FB6ADB687F
:104D10003F4A136097F82630002B13D0FB6A186DBA
:104D2000FB6A5C6AFD6AFB6A0433FA6AD28AF96A32
:104D3000098B0291019200932B4622460146F86AA4
:104D400004F058FDFB6A1B69BB60FB6A1B7DFB71AD
:104D5000FB6A3B60FB6ADB68FB623868FFF732F98D
:104D60002C4B00221A70FB68002B04D0FB686FF0FC
:104D70000C01B8689847274B1B78002B37D0C0E54B
:104D8000FB6ABB62FB6ADB68FB62BB6A1B7F0133A9
:104D9000DAB2BB6A1A77BB6A1A7FBB6A5B7F9A4238
:104DA00025D3BB6A00221A771A4B00221A70BB6AFD
:104DB000D3F88C30002B0BD0BB6AD3F88C30BA6A96
:104DC0001269B96A10469847034687F8253002E011
:104DD000002387F825300F4B1B78002B00D090E57F
:104DE00097F92530002B02D1B86A03F01DFFFB6A4A
:104DF000002B7FF48CAD0023BB62074B1B68FB626A
:104E000050E000BFDC0A0020D34D6210F8240100FE
:104E1000E80A0020F00A0020EC0A0020FB6A1B7D53
:104E20000A2B01D006F06BF9002387F82730214BBD
:104E30001A68FB6A1B6AD31AF02B04D997F827303B
:104E4000013387F8273097F82730002B25D0F86AF0
:104E500000F084FBBB6A002B0BD0174B1B68FA6A6F
:104E60009A4201D106F04BF9FB6ADA68BB6ADA6054
:104E70000AE0114B1B68FA6A9A4201D006F03FF92A
:104E8000FB6ADB680C4A1360FB6AFB61FB6ADB6848
:104E9000FB62F869FFF796F804E0FB6ABB62FB6A05
:104EA000DB68FB62FB6A002BB8D100BF00BF303764
:104EB000BD46B0BDDC0A0020EC0A002080B582B0FF
:104EC00000AF2D4B1B780133DAB22B4B1A702B4BF2
:104ED0001B687B6048E07B689A7F274B1B789A426F
:104EE0003FD0254B1A787B689A777B685B8B03F001
:104EF0000103002B10D07B685B8B43F002039AB256
:104F00007B685A83786803F08FFE7B685B8B23F0A5
:104F100003039AB27B685A837B685B8B03F00803B8
:104F2000002B09D07B685B8B23F008039AB27B6867
:104F30005A837868FFF798F97B68DB683B607B6889
:104F40009B6F002B0AD00E4B00221A70786800F07D
:104F500019F80B4B1B78002B00D0B8E73B687B603F
:104F600002E07B68DB687B607B68002BB3D100BF0D
:104F700000BF0837BD4680BDF20A0020E80A0020C5
:104F8000F00A002090B585B000AF78607B68002BF8
:104F900002D16FF00F0361E07B689B6F5B7BBB739B
:104FA0007B689B6FBB607B6800229A677B68D3F845
:104FB0008430002B0BD07B68D3F884407B68186961
:104FC0000023BA687968A0470346FB7307E0002313
:104FD000BA687968002000F0A5F80346FB7397F9DA
:104FE0000F30002B2BD1BB7B03F02003002B34D0E0
:104FF0007B681B8D41F2D062934205D07B681B8D8C
:1050000001339AB27B681A857B68D3F88430002B11
:105010000BD07B68D3F884407B681869002300229A
:105020007968A0470346FB7301E00023FB7397F9FF
:105030000F3013F10D0F10D16FF00C030EE097F944
:105040000F3013F10D0F02D16FF00C0306E07B68F7
:10505000BA689A676FF0040300E00023184614371B
:10506000BD4690BD80B584B000AF786007E07B6836
:105070001B68FB60786800F00AF8FB687B607B685F
:10508000002BF4D100BF00BF1037BD4680BD80B5F6
:1050900082B000AF78607B68002B0CD07B685B68C7
:1050A000002B04D07B685B681846FEF700FC79682B
:1050B0000420FDF7B7FE00BF0837BD4680BD80B4B1
:1050C00083B000AF78600B46FB707B68002B03D089
:1050D0007B68FA785A7500E000BF0C37BD4680BC8B
:1050E000704780B584B000AF78607B68002B01D139
:1050F00006F005F80420FDF765FEF860FB68002B5C
:1051000001D100230AE014227968F86809F03EFB17
:10511000FB685B681846FEF747FCFB6818461037CB
:10512000BD4680BD80B584B000AFF860B9607A60DC
:10513000FB70BB68002B02D16FF00F0316E07B6899
:10514000002B09D07B681B891946B868FFF743FB21
:105150007868FEF7ACFB08E097F90330002B04D128
:10516000B868FFF7DFF8034600E000231846103761
:10517000BD4680BD80B586B000AF0346FB7197F990
:105180000730002B01DBFB7900E07F23FB72FB7A09
:10519000002B34D0FB7A013BFB720023FB60002321
:1051A0003B61194B1B687B611FE07B695B7DFA7A71
:1051B0009A420CD87B695B7DFA7A9A4212D1134BE2
:1051C0001A687B691B6AD31AFA689A420AD80F4B8D
:1051D0001A687B691B6AD31AFB607B693B617B6938
:1051E0005B7DFB727B69DB687B617B69002BDCD1BB
:1051F0003B69002B04D03869FFF75EF900E000BF7F
:105200001837BD4680BD00BFE80A0020DC0A002038
:1052100080B586B000AF0346FB71FB79082B04D044
:10522000FB79092B01D005F06AFF0023FB60002306
:105230003B61154B1B687B6117E07B691B7DFA792D
:105240009A420FD1114B1A687B691B6AD31AFA680C
:105250009A4207D80D4B1A687B691B6AD31AFB6008
:105260007B693B617B69DB687B617B69002BE4D1F7
:105270003B69002B03D000213869FFF771F800BFAC
:105280001837BD4680BD00BFE80A0020DC0A0020B8
:1052900080B584B000AF00237B600023BB60124B5D
:1052A0001B68FB6012E0114B1A68FB681B6AD31A7B
:1052B0007A689A4207D80D4B1A68FB681B6AD31AA2
:1052C0007B60FB68BB60FB68DB68FB60FB68002BF6
:1052D000E9D1BB68002B02D0B868FFF7EDF800BF3A
:1052E0001037BD4680BD00BFEC0A0020DC0A00205C
:1052F00080B582B000AF104B1B687B6014E07B6808
:10530000DB683B607B685B8B03F00803002B09D0F4
:105310007B685B8B23F008039AB27B685A837868BA
:10532000FEF7A2FF3B687B607B68002BE7D100BFE4
:1053300000BF0837BD4680BDE80A002080B584B0B4
:1053400000AF0346FB710220FDF73CFDF860FB68EF
:10535000002B26D1FFF7CCFFFFF79AFF0220FDF7C5
:1053600031FDF860FB68002B1BD10920FFF750FFCF
:105370000220FDF727FDF860FB68002B11D1082003
:10538000FFF746FF0220FDF71DFDF860FB68002BCC
:1053900007D1FB791846FFF7EDFE0220FDF712FD5D
:1053A000F860FB68002B3FD09C220021F86809F0D0
:1053B000DFFAFB68FA795A75FB6840F66832A3F8A1
:1053C0006420FB6841F2D0625A85FB685A8DFB6805
:1053D0001A85FB68FF22DA72FB684FF406725A8660
:1053E000FB680622A3F84020FB680622DA87FB68E8
:1053F0004FF6FF721A86FB680122A3F848200D4B76
:105400001A68FB681A620C4B1A78FB689A77FB687B
:1054100040F66832A3F84A20FB68084AC3F88420A3
:10542000FB68074AC3F89420FB6818461037BD464E
:1054300080BD00BFDC0A0020F20A002025510000D8
:1054400000DD6D0080B500AF4020FFF777FF034619
:10545000184680BD80B483B000AF786039607B6847
:10546000002B02D07B683A681A6100BF0C37BD463A
:1054700080BC704780B582B000AF786039607B68CF
:10548000002B09D07B681B7D012B01D105F037FE75
:105490007B683A68C3F8842000BF0837BD4680BDEA
:1054A00080B582B000AF786039607B68002B09D08E
:1054B0007B681B7D012B01D105F021FE7B683A68DA
:1054C000C3F8802000BF0837BD4680BD80B582B0DC
:1054D00000AF786039607B68002B09D07B681B7D4A
:1054E000012B01D105F00BFE7B683A68C3F89020D0
:1054F00000BF0837BD4680BD80B485B000AF78607E
:1055000039607B68002B08D07B681B7D012B04D1A0
:105510007B68FB60FB683A689A6100BF1437BD4640
:1055200080BC704780B584B000AFF860B9601346A6
:10553000FB71FB68002B0DD0FB681B7D012B01D19B
:1055400005F0DDFDFB68BA68C3F88C20FB68FA79CA
:105550005A7700E000BF1037BD4680BD80B582B0ED
:1055600000AF78607B68002B38D07B681B7D002BF8
:1055700035D07B681B7D0A2B31D07B681B7D012BCE
:105580002DD07B689B6F002B07D07B689B6F1846E4
:10559000FEF78DF97B6800229A677B685B6F002BB2
:1055A00002D0786800F038F97B684FF6FF721A86EF
:1055B0007B68DB6E1846FFF755FD7B681B6F18464E
:1055C000FFF750FD7B680022DA667B68DA6E7B6845
:1055D0001A677B680022A3F8682000E000BF083744
:1055E000BD4680BD80B584B000AF786039603B684F
:1055F000002B01D105F083FD7B68002B01D105F064
:105600007EFD7B681B683A689A4205D17B681B68FF
:10561000DA687B681A6013E07B681B68FB600CE04B
:10562000FB68DB683A689A4204D13B68DA68FB6839
:10563000DA6005E0FB68DB68FB60FB68002BEFD1FC
:105640003B680022DA603868FFF788FF3B681B7D03
:105650000A2B13D03B681B7D012B0FD03B685B8B63
:1056600003F00103002B09D03B685B8B43F002037E
:105670009AB23B685A83386803F0D6FA3B681B7DC0
:10568000012B11D03B68DB6E002B01D005F037FDFC
:105690003B681B6F002B01D005F031FD3B685B6F51
:1056A000002B01D005F02BFD3B6800221A753B68EA
:1056B0000022DA8200BF1037BD4680BD80B582B0BF
:1056C00000AF78607B68002B01D105F018FD064B18
:1056D0001A68064B1B681344034A1360024B1B688D
:1056E00018460837BD4680BD04000020DC0A0020B3
:1056F00080B586B000AF0346B9607A60FB817B68F5
:10570000002B01D105F0FBFCBB68002B01D1FB890C
:1057100019E0BB689B8CFB82FB8A002B12D02823EC
:10572000BB82FA8ABB8A9A4204D9FA8ABB8AD31A04
:105730009BB200E000237B827A8AFB89934228BFD8
:105740001346FB81FB8918461837BD4680BD80B5DE
:1057500084B000AF786039603B68FB607B68002BE9
:1057600014D105F0CCFC11E0FB681A687B681B685B
:105770009A4208D1FB68DB68BB60F868FEF79CFEC4
:10578000BB68FB6002E0FB68DB68FB60FB68002B2A
:10579000EAD100BF00BF1037BD4680BD80B584B0E0
:1057A00000AF786039607B68002B2AD07B681B686B
:1057B000002B26D0154B1B6819467868FFF7C7FFEA
:1057C000134B1B6819467868FFF7C1FF3B68002B35
:1057D00017D03B681B68002B13D00E4B1B68FB6077
:1057E0000CE0FB681A687B681B689A4203D13B682F
:1057F0001A68FB681A60FB68DB68FB60FB68002BBB
:10580000EFD100BF1037BD4680BD00BFE80A0020C1
:10581000E00A0020E40A002080B582B000AF786082
:105820007B685B6F002B07D07B685B6F1846FFF7C8
:1058300019FC7B6800225A6700BF0837BD4680BD4F
:1058400090B58DB004AF786039607B68002B01D1D2
:1058500005F055FC7B685B68924A13607B685B8946
:10586000132B40F29683904B5B698F4A1268114666
:105870001846FCF715F90346002B40F08C838A4B41
:105880005B6903F0F003E02B00F085837B681A89E5
:10589000864B0093864B06217868FDF786F8034611
:1058A0003B823B8A002B40F078837E4B1B689B89B0
:1058B0009BB21846FCF75AFF03461B0B9BB2DBB2A8
:1058C0009B00FB73FB7B132B40F26983FB7B9AB23B
:1058D0007B681B899A4200F26283FB7B9BB2143B7C
:1058E0009AB2744B1A80744B00221A607B685A89F2
:1058F000FB7B9BB29A4209D36E4B1A886F4B1A807E
:10590000FB7B19467868FDF762FF42E07B681B6805
:10591000002B01D105F0F3FB14217868FDF757FF48
:105920007B685A89654B1A80624B1A88634B1B88C7
:10593000D31ABB81614B1B8819467868FDF747FF76
:105940007B681B685B89BA899A4200F22A837B686C
:105950001B685B68584A13607B681B68BA891146EC
:105960001846FDF734FF7B681A89BB89D31A9AB2AF
:105970007B681A817B685B89002B01D005F0BFFB37
:105980007B681A897B681B681B899A4201D005F0E5
:10599000B6FB444B1B681B889BB2424A14681846EE
:1059A000FCF7E4FE034623803E4B1B685B889BB2FA
:1059B0003C4A14681846FCF7D9FE03466380394B0D
:1059C0001B685B68374A14681846FCF7E3FE034619
:1059D000636063683A4A1360324B1B689B68314AC4
:1059E00014681846FCF7D6FE0346A360A368354A40
:1059F00013602C4B1B68DB899BB22A4A146818463B
:105A0000FCF7B4FE0346E381264B1B689B899BB2DF
:105A10001846FCF7ABFE0346DBB203F03F03DAB2F5
:105A2000294B1A707B681A89284B1A80264B1B78E1
:105A300003F00303002B0CD0244B1B8801339AB2D4
:105A4000224B1A807B681A89204B1B889A4200F2ED
:105A5000AA820023BB611E4B1B68FB6178E0FB69D7
:105A60001B7D002B01D105F04AFBFB691B7D0A2B36
:105A700001D105F044FBFB691B7D012B01D105F031
:105A80003EFBFB691B7A002B24D0FB691A7A064B7C
:105A90005B6893F830300133DBB29A421AD0FB696D
:105AA000BB6152E0080B0020B40A0020C80A0020A5
:105AB000C40A00200C0B0020100B00200E0B00204D
:105AC000180B00201C0B0020240B0020220B0020B0
:105AD000E80A0020FB691A8B6A4B1B681B889BB283
