:10000000008000204F0100000D0100000F010000E2
:1000100011010000130100001501000000000000A4
:1000200000000000000000000000000017010000B8
:1000300019010000000000001B010000956900008C
:100040001F0100001F0100001F0100001F01000030
:100050001F0100001F0100001F0100001F01000020
:100060001F0100001F0100001F0100001F01000010
:100070001F0100001F0100001F0100001F01000000
:100080001F0100001F0100001F0100001F010000F0
:100090001F0100001F0100001F0100001F010000E0
:1000A0001F0100001F0100001F0100001F010000D0
:1000B000E16800001F0100001F0100001F01000097
:1000C0001F0100001F0100001F0100001F010000B0
:1000D0001F0100001F0100001F0100001F010000A0
:1000E0001F01000084AD000000000020740000002B
:1000F00084AD000000000010000000007800002027
:100100008C0B00000000001000000000FEE7FEE77E
:10011000FEE7FEE7FEE7FEE7FEE7FEE7FEE7FEE7B7
:100120000023934209D210B450F8044B41F8044B19
:1001300004339342F8D310BC70477047002303E0A8
:10014000002240F8042B04338B42F9D3704710B5DA
:100150000E4B07E003F10C049A6859681868FFF722
:10016000DFFF23460A4A9342F4D306E01C4659684F
:1001700054F8080BFFF7E2FF2346064A9342F5D3F3
:1001800007F0C8FE07F042FCFEE700BFE4000000F5
:10019000FC0000000C01000070B5044643890E2BE2
:1001A00026D90D4640688689E37B1BB991F830302B
:1001B0000133E373037813F0010F14D0012B09D13D
:1001C000437883B983785E2B0DD1637B43F01003B2
:1001D000637308E00622194908F0D8FC18B9637B5C
:1001E00043F008036373082E07D0B6F5C16F14D02F
:1001F000204601F0E9FE002070BD95F82D3013F087
:10020000080FF5D00E21204601F0A8FE0028EFD1FE
:100210002946204600F0F0FDEDE795F82D3013F06B
:10022000080FE5D00E21204601F098FE0028DFD10E
:100230002946204600F0D6F9DDE700BF60A10000A6
:100240002DE9F84305460C4616461F46BDF820002A
:1002500001F0F6FA80460E21204601F07AFED8B968
:10026000D4F80490A9F80C8006223946484608F0D4
:100270009DFC0622314609EB020008F097FC95F838
:100280002C30062B05D1AB69214628469847BDE89E
:10029000F88306F09FFBF6E76FF00100F7E7FFFF3A
:1002A00010B5044600EB4002094B53F8320038B158
:1002B00001F08AFE04EB4403DB00054A0021D15023
:1002C00004EB4404024800EBC4040023237510BD72
:1002D000780000202DE9F04F83B0064617464FF016
:1002E0000009CE46CB464FF00A0A4B465546D0464B
:1002F000CDF804A003E068B91D4601331BB2092BF9
:100300004CDC1C4603EB4302514800EBC202107D5B
:100310000A2DF0D00028F0D056B104EB440C4C4A22
:1003200002EBCC0CDCF80420D6F800C094450ED0CB
:10033000012818D00128E0D904EB4404444A02EB18
:10034000C404628A4A45D8D391469846D5E7002F1F
:1003500075D004EB440C3E4A02EBCC029268BA42E0
:10036000E6D11D464CE004EB4402394850F83220F7
:100370004AB104EB440400EBC404628A5A45BCD37E
:1003800093469A46B9E704EB4404314A02EBC404AD
:10039000628A7245B1D396460193AEE711F0020F1F
:1003A0004FD10A2D30D0092D10DDB8F1090F31DC05
:1003B00008EB4803264A52F833309BB306F00AFB99
:1003C0004546092D32DC2846FFF76AFF092D30DC4F
:1003D0002C4605EB45031E4A02EBC3031B7D5BBBAA
:1003E00036B1316804EB4403194A02EBC303596088
:1003F000174B04EB440203EBC202002151829760C9
:10040000284603B0BDE8F08F11F0010FCBD14FF0BB
:10041000FF35F5E7019B092B06DDBAF1090F13DC67
:100420005546CEE74546CCE7019DCAE706F0D2FA2D
:10043000C9E706F0CFFACBE706F0CCFAD0E71D46C5
:10044000DEE74FF0FF35DBE74FF0FF35D8E700BFC1
:10045000780000202DE9F04383B005460C4616468F
:100460001F4690F82C20062A3ED1002C3FD0206851
:1004700000283CD0294600F046FEC0BB226802F0AE
:10048000F002E02A33D02A4639462046FFF722FF01
:10049000041E2FDBDFF8688004EB44074FEAC7092E
:1004A00008EBC70702233B75BD604846083040444F
:1004B00006223146043008F079FB00237B8258F88D
:1004C0000970DFB11C4648F809304FF4006300930F
:1004D000334605F1260239462846FFF7B1FE384675
:1004E00001F072FD204606E006F074FABDE76FF0F9
:1004F0000F0000E060B203B0BDE8F0830020FAE72F
:10050000780000202DE9F04383B00F4690461D4649
:100510008146002848D04FF420721C210E2001F0A3
:1005200095FD0646002848D043891B2B3FD97468A7
:10053000BDF8340001F084F9E08099F82C30062BE6
:1005400038D10622294604F1080008F02FFB0622C4
:100550000B9904F1120008F029FB04220A9904F116
:100560000E0008F023FB04220C9904F1180008F097
:100570001DFB00252570012363700823A370E5701F
:10058000062323710423637140F606030093434658
:100590003A4631464846FFF753FE304601F014FD17
:1005A000284603B0BDE8F08306F014FAB3E706F07E
:1005B00011FABCE706F00EFAC3E74FF0FF30F0E7A0
:1005C00030B585B000F12603041D01250395029185
:1005D0000349019100941946FFF794FF05B030BD1F
:1005E00068A10000002962D02DE9F04387B00446DD
:1005F0000E4645682B88B3F5807F08D12B79062BF2
:1006000005D16B79042B02D16B88082B05D02046CD
:1006100001F0DAFC07B0BDE8F083042205F10E0119
:1006200005A808F0C3FA042205F1180104A808F08F
:10063000BDFA73688BB905F108090027B846022393
:100640004A4605A93046FFF705FFEB88B3F5807FE2
:1006500018D0204601F0B8FCDCE7049A934214BF9E
:100660004FF000084FF00108059FBB4214BF002760
:10067000012705F10809B8F1000F01D00123DFE7D8
:100680000223DDE7B8F1000FE3D0002FE1D106F13E
:100690002601331D0222039205AA0292CDF804908E
:1006A00000930B464A463046FFF72CFFD1E77047D0
:1006B00008B5024AFFF784FF08BD00BF60A1000033
:1006C00010B5002405E0042B1BD92046FFF7E8FDF8
:1006D0000134092C35DC04EB4403DA00194B1344D4
:1006E0001A7D002AF4D004EB4401CB0015491944CB
:1006F0004B8A01339BB24B82B3F5967FE5D2012A38
:10070000E1D0032A0DD0042A13D0012AE0D104EB52
:100710004403DA000B4B1344191D9868FFF7C8FF18
:10072000D6E704EB4403DA00064B134404221A759F
:10073000CEE704EB4403DA00024B134402221A759D
:10074000C6E710BD7800002070B582B005460E46A1
:10075000144602EB42022C4B03EBC2031B7D012B20
:1007600019D904EB4403284A02EBC3031B7D022B77
:1007700014D004EB4403DB000833234C23444FF430
:1007800000620092043305F1260231462846FFF745
:1007900057FD02B070BD06F01DF9E2E704EB44031B
:1007A00002EBC3035B8AB3F58E7F1BD8B3F5877F5B
:1007B000DFD3154B04EB440103EBC10104EB44020E
:1007C000D20008321A44043204312846FFF7F8FEFA
:1007D0000028CED104EB44030B4A02EBC3030322EF
:1007E0001A75C6E704EB440102EBC1010431284647
:1007F000FFF75EFF0028BCD104EB4403024A02EB82
:10080000C30303221A75B4E7780000202DE9F043F2
:1008100083B007460D46164600F1260801462868B3
:1008200000F071FC002840F0AE802B6803F0F0026D
:10083000E02A00F0AB80002D00F0AB80002B00F030
:10084000AB803A4601212846FFF744FD041E2DDB0C
:10085000A3B27E2B2CD8E4B204EB4402514B03EB41
:10086000C2031B7D3BBB13464E4A02EBC3034FF052
:10087000010983F814909F6004EB4403494A02EB9A
:10088000C3031B7DD3B1B9F1000F1AD1CEB14FF024
:10089000FF358EB304EB4403424A02EBC3031B7DD6
:1008A000012B2CD8012B3BD1354642E065B237E015
:1008B00006F090F8CFE74FF00009DDE706F08AF880
:1008C000E1E729463846FFF7F3FE054638B904EB61
:1008D0004403344A02EBC3031B7D012B02D0002EDC
:1008E000D7D11DE0B9F1000FF9D104EB440302EBBD
:1008F000C30300225A82F2E706F06CF8CAE72A4BDB
:100900001C7004EB4403DB00083313444FF4006213
:1009100000920433424631463846FFF791FC0546C3
:10092000284603B0BDE8F0832B7B13F0400F24D1A1
:100930002D684DB16A892B899A42F5D12B68002B1D
:10094000F2D006F047F8EFE70023C3B132464FF488
:1009500020710E2001F038FD064606B304EB440377
:10096000104A52F8330008B101F02EFB04EB4404A6
:100970000C4B43F834600025D2E70123E5E730460D
:1009800001F039FCE9E76FF00F05C9E76FF00F05DB
:10099000C6E76FF00F05C3E76FF00F05C0E74FF034
:1009A000FF35BDE77800002068010020F0B585B074
:1009B0000F461546064600283CD0002F3DD0002D9E
:1009C0003ED03146286800F09EFB0346002871D1D6
:1009D0002A6802F0F001E02935D07168B068514012
:1009E000014209D092B24FF6A9618A4204D0F2685E
:1009F000002A6BD006F10C05364A127802EB420051
:100A0000354901EBC001097D012934D9014632483D
:100A100000EBC1018968B1422DD12C6802EB420183
:100A200000EBC10149688C4225D139463046FFF7B9
:100A30008BFE49E005F0CEFFBFE705F0CBFFBEE738
:100A400005F0C8FFBDE701238DF8083000238DF8BD
:100A500009305E238DF80A306B7803F07F038DF840
:100A60000B30AB788DF80C30EB788DF80D3002AB95
:100A700021E00133DBB2092B16D803EB4300164CFF
:100A800004EBC000027D012AF3D98268B242F0D1A2
:100A90002A6841688A42ECD10E4A13701A463946D8
:100AA0003046FFF751FE0FE03A4629463046FFF741
:100AB000ADFE09E0094B4FF40062009206F12602F8
:100AC00039463046FFF7BCFB05B0F0BD6FF00300C0
:100AD000FAE700BF680100207800002060A1000054
:100AE0002DE9F04786B005468946904607891B2FB9
:100AF00000D91C2707F108034FF4207299B2222075
:100B000001F0A4FA064698B3428907F108039A4215
:100B100031D3D5F804A0746884F8009084F801807B
:100B2000002323716371A371E37108233A462946B8
:100B3000304601F08CFBDAF80C30059305A800F084
:100B400003F9074688B10025A570E5707189204634
:100B500000F074FF60800297012301930095FF234A
:100B600005AA2946304600F0B9FA304601F02CFAC1
:100B700006B0BDE8F08705F02DFFCAE72DE9F04784
:100B800084B005465B4B9E68337803F00F034FEA51
:100B900083084446132C18D90F464389032B14D9D4
:100BA00043681B78082B40F09980524B586900F03D
:100BB000F003E02B23D04F4B196800F0A4FA50B19A
:100BC00007F104092B89072B08D8284601F0FCF906
:100BD00004B0BDE8F087DFF82091F3E7284600F085
:100BE00033FF80B908F10E0A5146284601F0B1F9E9
:100BF00000283AD02B89191989B28B4207D9284687
:100C000001F0E2F9E4E7284601F0DEF9E0E74FF40D
:100C100020720E2001F01AFA82460028EFD0428995
:100C200008F108039A4213D342463146406807F060
:100C3000BDFF4146504601F091F960B92946504642
:100C400001F085FB68B9284601F0BEF9554611E070
:100C500001F0BAF9D3E705F0BDFE504601F0B4F952
:100C6000CDE7504601F0B0F9C9E75146284601F0FA
:100C700075F9B8BBD5F804A04146284601F069F9DA
:100C800060BB6E68D9F80030F3601A4B1B693361A2
:100C900000238AF80030BAF802304FF6F772934218
:100CA00023D90933AAF802304FF0FF0A86F808A0CA
:100CB0004FF0000886F80A8086F80B8021463046FF
:100CC00000F0BCFE7081029701230193CDF80080F3
:100CD000534642464946284600F000FA284601F0AD
:100CE00073F975E705F076FE89E70833AAF8023054
:100CF000DAE700BF740100208801002008B50A4629
:100D00000321FFF7EDFE08BD08B50A460B21FFF7EA
:100D1000E7FE08BD08B590F82D3013F0010F0DD097
:100D20000146436863B1074A5069834204D000F02A
:100D3000EAF908B9002002E0012000E0002008BD27
:100D40000020FCE7740100208446294B18682EE03F
:100D50000068C8B190F82D3013F0010FF8D013F0EF
:100D6000040FF5D04268002AF2D0DCF800104A40A7
:100D7000D0F808E012EA0E0F16D013F0020FE7D1F8
:100D8000C3689942E4D10FE01A4B1B6863B193F832
:100D90002D2002F00502052A06D15A6822B19CF8DE
:100DA00000207F2A00D018465DF804FB006860B17F
:100DB00090F82D3013F0010FF8D013F0040FF5D098
:100DC0004268002AF2D000B5CFE70A4B1B686BB12E
:100DD00093F82D2002F00502052A07D15A682AB19E
:100DE0009CF800207F2A01D018467047704700BF4A
:100DF000900100208C0100202DE9F8430446D0F832
:100E0000048098F800301A09042A04D001F0DCF8B4
:100E10000020BDE8F8830F4603F00F034FEA830973
:100E20004D46B8F8020000F00BFD064623898342C8
:100E30000BD86389AB4204D32389B34201D3132D6A
:100E400008D8204601F0C0F8E2E70146204601F04C
:100E50008CF9EEE72946404600F0F0FDA0B9D8F83D
:100E60001030554A5361D8F80C10116103F0F003AB
:100E7000E02B0DD197F82D3013F0010F1ED07B68B9
:100E8000002B54D100251AE0204601F09DF8BFE761
:100E90003846FFF73FFF00284BD1474B1B7D7F2B88
:100EA00049D0464B1D6800E02D6845B1BD42FBD0DE
:100EB0002846FFF72FFF0028F6D000E0002539462E
:100EC0003D4B186900F01FF9002836D13A4B1B69D9
:100ED00003F0F003E02B30D0002D32D0B8F806300C
:100EE00023F0C0039BB23BB1204600F0E9FA044670
:100EF00000288DD0D0F804802F4A15605760C2F8C2
:100F0000088098F8003003F00F039B009381394666
:100F1000204601F097FA0646012816D1264B0022FA
:100F20001A605A609A609A811A615A6170E73D4668
:100F3000C5E73D46C3E70025C1E7204601F044F878
:100F400066E7204601F040F862E74946204601F096
:100F500005F898F80930062B0ED0112B07D0012B7D
:100F60000FD0022E12D1204601F02EF8D6E73946D6
:100F7000204605F077F9D1E73946204603F088FB93
:100F8000CCE739462046FFF7F9FDC7E729460A4B6B
:100F9000586900F0B8F80028E5D1074B5B6903F009
:100FA000F003E02BDFD04946204601F008F802218B
:100FB0002046FFF7A3FED6E7740100209001002031
:100FC0002DE9F04F83B00446884616461F469DF82B
:100FD00030A09DF834B0DDF83890837B012B5BD1D5
:100FE000002E63D01421204600F0B3FF00286BD1FF
:100FF00065686389132B52D92F7285F809B04BEAC3
:1010000007273B0A43EA07239BB237682F61BAB22E
:10101000134403EB174345222A7085F801A04AF4D4
:101020008A4A42EA0A273FB2BFB21F44208900F031
:1010300007FC688007440023AB71EB71DFF894A0D4
:10104000BAF8000000F0FCFBA8800744BAF80030B2
:101050000133AAF80030B8F1000F23D0D8F80030DF
:10106000EB60EA6893B23B4403EB1247BBB203EB7D
:10107000174303EB1343DB436B81B9F8243013B1FF
:10108000228993421AD3D9F8143032462146484671
:10109000984703B0BDE8F08F05F09CFCA0E705F091
:1010A00099FCA9E70C4B1B68EB60DAE76389132B0B
:1010B0000DD963681B69019301AEDEE732464946EC
:1010C000204600F0E9FAE4E76FF00100E1E76FF095
:1010D0000100DEE76A01002070A1000010B584B0B5
:1010E000089C94461AB109B10A6802B9211D0294FC
:1010F0009DF81C2001929DF8182000926246FFF78F
:101100005FFF04B010BD0346421E12F1030F12D858
:1011100091F82D0010F0020014D04A689A420CD0C9
:1011200088685A4002420AD1C24323EA00039A4225
:1011300007D0002070470120704700207047002032
:10114000704701207047FFFF38B50446094B1B6804
:10115000834208D00D4651B123682B6021460520FB
:1011600000F002FD38BD0268024B1A60F6E705F098
:1011700031FCF1E7700100202DE9F84380468946F3
:10118000814211D0B9F1000F05D0D9F800304345A4
:1011900001D005F01FFCD8F804506B689A8832B172
:1011A0000026D8F804501DE005F014FCEAE71B689F
:1011B000C8F80430142208F10801686807F0F6FC4A
:1011C00001212846FFF7A0FD284601F00BF806464E
:1011D000284600F0F9FEE4E73444A6B2284600F0C1
:1011E000F3FE3D4665B16B681F68284600F0FAFFC4
:1011F00004463318B3F5803FEEDB05F0EBFBEBE77D
:1012000049464046FFF7A0FF064B1B88B34206D372
:10121000044A13889B1B13803046BDE8F88305F011
:10122000D9FBF5E76C010020F8B505460F4600260E
:101230002BE09A69D5F810E0724511D1B3F80CE0B3
:10124000AA8896450CD101E0614618461A6892B109
:101250009C4613468BB15A69D5F80CE07245E8D02C
:1012600001340028F0D093F81FE0C27F9645EDD8F6
:1012700061461846EAE76346EAE710B1FFF77CFFEC
:101280000644BE4208DA012C06DD044B1B6800242C
:101290002146A4462046DDE73046F8BD7001002017
:1012A00010B5044620B12146062000F05DFC10BDBB
:1012B00005F090FBF7E710B5044638B1606908B156
:1012C00000F082FE2046FFF7EBFF10BD05F082FB29
:1012D000F4E72DE9F84380460D4691464C68608856
:1012E00000F0AEFA237803F00F03B0EB830F03D2C4
:1012F0004FF0FF30BDE8F8839A00801A87B2E0888B
:1013000000F09EFAC0F30C0C4FEACC0C6E68002380
:1013100033707370B370F370A6F804C007EB0C0061
:101320001FFA80FEF080E64570D3D8F8041001273C
:101330001C461FE03160ACB1E288624569D89B88E9
:101340009E4569D82560B3889A4200D0002719B31A
:10135000B9F1000F37D198F81E3013F0010F32D1D8
:101360004846C7E79B889E4559D8C8F80450EEE721
:1013700019681C460029EAD04B689A886245D9D87A
:1013800062454FD0D98861454FD8002CF0D0E18814
:101390008A42EDD00027EBE76CB1E288B3889A422D
:1013A00006D82560E288B3889A42D1D00027CFE7DB
:1013B00005F010FBF5E7D8F804300BB105F00AFB97
:1013C000C8F80450C4E7FFB1D8F80430CBB158686E
:1013D0008388C3B932684AB15368F1889A889142C8
:1013E00002D11A681E46F6E71E46002767B1B042D2
:1013F00004D0336843B105F0EDFA05E005F0EAFAF0
:10140000F7E7002700E00027384673E74FF0FF308A
:1014100070E74FF0FF306DE74FF0FF306AE74FF0B5
:10142000FF3067E74FF0FF3064E74FF0FF3061E7D0
:1014300008B5062000F08AFB08BDFFFF70B5054621
:101440000E46052000F082FB044690B120220021C8
:10145000204607F0D3FB0F23E3770D4B1A68226079
:101460001C601422294604F1080007F09FFB204667
:1014700070BD31462846FFF7D7FEB04202DA002C95
:10148000E4D1F4E7052000F061FB0446F7E700BF74
:101490007001002038B5094B1868002403E0013BB7
:1014A000C3770446006840B1C37F002BF7D10568BD
:1014B0002146FFF761FE2846F5E738BD70010020A0
:1014C0002DE9F843064645682B7803F00F03052BFA
:1014D00040F0C980E88800F0B3F9C0F30C084FEA87
:1014E000C808688800F0ACF92B7803F00F039F0060
:1014F000B0EB830FC0F0B780C01B87B2304600F05E
:1015000071FE8146624B1B8803440A2B02DC614B4F
:101510001C680DE001462846FFF786FE002800F013
:10152000A2805B4B1B884B440A2BF0DD9BE02468B8
:101530005CB16269EB689A42F9D1A2692B699A425F
:10154000F5D1A289AB889A42F1D16CB3E88800F05A
:1015500077F9C0F30C0078B3ED8805F02005002D75
:101560000CBF0122002208D108EB07039BB298456B
:1015700076D84FF6EB718B4272D831462046FFF792
:10158000A8FEB0F1FF3F6BD0414B1A889144A3F8FD
:1015900000902DB94744A783A37F43F00103A377AD
:1015A000012817D0002562E049462846FFF746FF8C
:1015B00004460028D0D156E0E08900F041F9C0F39C
:1015C0000C000028C8D01422294604F1080007F0B6
:1015D000EDFAC1E7A78B1437BFB263685D682E6868
:1015E000142204F10801284607F0E0FA384600F01A
:1015F00027F968800023AB71EB71AB72EB72142199
:10160000284600F01BFA6881656809E077681421B4
:10161000304600F0A3FC3146284600F0F8FD3E6855
:10162000002EF3D11B4B1968A14205D029B10B68DC
:10163000A34202D01946F9E731462046FFF784FD60
:10164000284600F0CFFD0446114B1B88834204D38B
:101650000F4A13881C1B148009E005F0BBF9F7E75B
:1016600044B163684BB1304600F0AEFC002528461B
:10167000BDE8F88305F0AEF9F3E7064B1B68A3421B
:1016800001D005F0A7F900212046FFF75DFDEAE74C
:101690006C010020700100202DE9F04F8BB0064650
:1016A000059108928B8C143B40D4C3F3CF03039372
:1016B00072680692137803F00F03052B40F0B48094
:1016C0007389132B40F2B380D08800F0B9F8C0F3CF
:1016D0000C03049300F4005309933389143B1FFA5D
:1016E00083FB14270024BBF1000F00F09B80039BB9
:1016F000DB009BB25B4528BF5B4602934FF4207230
:1017000014210E2000F0A2FC8246002800F09280F6
:101710004389132B0CD914220699DAF8040007F038
:1017200045FADAF804300793029D28E00733BCE756
:1017300005F050F9EFE705F04DF926E0FFF778FEE8
:10174000804650B3736801943B44009303464122A2
:101750002146002000F0DEFB814630B3304600F029
:101760004AFDC8F81460354BC8F810304946504659
:1017700000F04DFD2D1BADB20DB136680027EDB167
:101780007389DC1BA4B2BB42D5D3AC4228BF2C4624
:10179000002CD3D136682746F1E7504600F014FC00
:1017A0004FF0FF300BB0BDE8F08F4046FFF778FDFB
:1017B000504600F009FC4FF0FF30F3E72744BFB27A
:1017C000059B9B8C133B049AC2F30C005B4501DD27
:1017D000099B0BB140F4005000F032F8079DE880FF
:1017E000DDF8088008F1140080B200F029F8688064
:1017F0000023AB72EB721421284600F01FF96881B8
:1018000005984369089A51469847504600F0DCFB1A
:10181000ABEB080B1FFA8BFB049B039A13449BB2A0
:10182000049360E70020BDE76FF00500BAE76FF0B2
:101830000500B7E74FF0FF30B4E700BFB712000074
:10184000030A43EA002080B27047030203F47F03D7
:1018500043EA0063020A02F47F42134343EA106042
:10186000704708B5002207E090F800C0437843EACB
:101870000C2302301A4402390129F5DC002902DD6B
:10188000037802EB032290B200EB1240030C1B041E
:1018900013B183B203EB104080B2FFF7D1FF08BD54
:1018A0002DE9F0410546884617461C46002600E013
:1018B0002D68B5B169896868FFF7D3FF0444A3B206
:1018C00003EB14446B8913F0010FF1D086F001068D
:1018D0004FEA042C1FFA8CFCC4F307244CEA0404DE
:1018E000E6E726B1220292B2C4F30724144340462D
:1018F000FFF7A6FF04443846FFF7A2FF204484B256
:1019000004EB1044A0B200EB1440C04380B2BDE829
:10191000F0812DE9F84F0546884691461F460A9CFE
:10192000002603E005F056F814E02D681DB317B348
:10193000B5F80AB05F4500D2BB4659466868FFF764
:1019400090FF00EB040AA7EB0B039FB247F6FE7370
:101950009F42E7D81FFA8AF404EB1A44B5F80AC08C
:101960001CF0010FE1D086F0010623029BB2C4F304
:1019700007241C43D9E726B123029BB2C4F30724F2
:101980001C434046FFF75CFF04444846FFF758FFFE
:10199000204484B204EB1044A0B200EB1440C043D6
:1019A00080B2BDE8F88F10B51C68A3B203EB144CED
:1019B000029B1C68A3B2634403EB14431FFA83FC2D
:1019C0000CEB13439CB204EB1343FFF769FF10BD0C
:1019D00000B583B0DDF810C0CDF800C0FFF7E3FF1D
:1019E00003B05DF804FB30B583B0069C24681FFA91
:1019F00084FC0CEB1444079D2D681FFA85FCA4445D
:101A00000CEB154C1FFA8CFE0EEB1C4C1FFA8CF4E1
:101A100004EB1C440094FFF77CFF03B030BD00B51D
:101A200083B0DDF814C0CDF804C0DDF810C0CDF8E7
:101A300000C0FFF7D8FF03B05DF804FB08B5FFF75F
:101A400010FFC04380B208BD70B50546002634467D
:101A500000E02D689DB169896868FFF702FF0444C2
:101A6000A0B200EB14446B8913F0010FF1D086F0A3
:101A7000010623029BB2C4F307241C43E9E726B105
:101A800023029BB2C4F307241C43E04380B270BD21
:101A900038B50446154607F089F829462046FFF771
:101AA000E0FE38BD08B500F00BF800F047F800F094
:101AB000D2F804F0D5FB00F0E9FD04F051FB08BDBD
:101AC0007047704710B507F051F8044630B1C31C99
:101AD00023F00303834201D004F07CFF204610BDB5
:101AE00010B5044650B1E31C23F00303A34201D018
:101AF00004F070FF204607F041F810BD04F06AFFC3
:101B0000F1E710B50088033020F00300FFF7DAFF9B
:101B1000044610B110F0030F01D1204610BD04F0AF
:101B200059FFFAE710B50C4611F0030F03D1204618
:101B3000FFF7D6FF10BD04F04DFFF8E7002301E0EA
:101B400001339BB2092BFBD97047FFFF092806D848
:101B500008B5044B53F82000FFF7D3FF08BD002061
:101B6000704700BF9CA10000092807D831B108B513
:101B7000034B53F82000FFF7D5FF08BD704700BFA7
:101B80009CA100000B688268934205D011B183606C
:101B9000012070470023FAE7002070470B68C268F5
:101BA000934205D011B1C360012070470023FAE7CA
:101BB000002070476FF00B00704738B504460D46A3
:101BC00001F05CF82946204604F00AFC294620462C
:101BD00000F08AFC38BD38B50C46054670B195F862
:101BE0002D3003F00502052A07D114F0010F04D0AF
:101BF0006A6812B113F0080F03D138BD04F0EAFE91
:101C0000EDE7291D2846FEF753FDF6E770B582B0D3
:101C1000044615460E4639B14DB1326863689A42A2
:101C200008D1002002B070BD04F0D4FEF4E704F047
:101C3000D1FEF2E701922B6001A92846FFF7BDFF14
:101C40003EB13368636001212046FFF7C4FF0120E5
:101C5000E8E70023F6E770472DE9F04182B004463B
:101C600016461D460F46D9B1E6B1EDB10FB13B683E
:101C7000E3B901AA39462046FFF7C8FF4FF0010833
:101C8000002231462046FFF77DFF002229462046EC
:101C9000FFF784FFB8F1000F0BD002B0BDE8F08170
:101CA000074FE1E7064EE0E7054DDFE74FF000089C
:101CB000E6E701AA39462046FFF7A8FFEDE700BF97
:101CC00070A1000070B5059C0646002852D0002C7B
:101CD00055D0D1B1DAB1E3B100207060B060F060EE
:101CE000284D7561B08486F82D000498F06126486F
:101CF000007886F83000069830613046FFF7ACFF78
:101D00003046A04710B3002034E02049E2E71F4AE4
:101D1000E1E71E4BE0E7002386F830301AE004F0DC
:101D200059FE09E094F8302096F830309A4209D0F4
:101D3000246854B1B442F2D00135FF2DF2DD04F035
:101D400049FEEFE7013386F830303CB196F8303089
:101D5000FF2BE0D00E4B1C680025EAE796F83030E8
:101D6000FE2B08D00133084A1370094B1A68326001
:101D70001E60304670BD044B00221A70F5E700204B
:101D8000F8E700BFB51B00009401002070A100001F
:101D900090010020014B1860704700BF8C010020AB
:101DA00070B108B590F82D3013F0010F00D008BDC8
:101DB00043F0010380F82D300321FFF70CFFF6E715
:101DC000704770B108B590F82D3013F0040F00D0B3
:101DD00008BD43F0040380F82D300321FFF7FBFE1C
:101DE000F6E7704740B190F82D3013F0040F03D0A0
:101DF00003F0FB0380F82D307047FFFF024658B117
:101E0000064B186838B190F830300133DBB293429A
:101E100003D00068F6E7704700207047900100206B
:101E2000014B01221A7070479501002010B4002464
:101E300004604160028143819DF8043003739DF882
:101E40000830437301238373C47310BC704770B5AB
:101E50000C4616460546C0B115B3B4F5803F21D2F5
:101E600014B3A2B22B8913449BB293421ED395F9AB
:101E70000C1000290CDBDEB169680C1B6C606989F1
:101E80000A446A812B8100200DE004F0A3FDE3E702
:101E900069680C1B05F11001A142EFD9012002E095
:101EA000012000E0012070BD0020FCE70120FAE7DE
:101EB0000120F8E708B5074B00221A70064B186896
:101EC00000E0C06820B1436F002BFAD000F085FD20
:101ED00008BD00BF950100209C010020F0B583B033
:101EE00006460D461446412A01D0012A0FD108208A
:101EF000FFF72CFE074638B10023019300942B46D0
:101F00002A463146FFF792FF384603B0F0BD04F091
:101F100061FDECE730B583B08E461C46069900F1B2
:101F2000030C2CF0030C0EEB0C00BDF81C30984297
:101F30000DD801B1614425460223019300927346F6
:101F400072462046FFF772FF284603B030BD0025D9
:101F5000FAE708B50022FFF77AFF08BD38B50C464E
:101F6000054690B1A5B1B4F5803F13D2A4B1A2B299
:101F70006B89934212D36968214469609B1A6B8113
:101F80002B899A1A2A81002005E004F023FDE9E755
:101F9000012000E0012038BD0020FCE70120FAE725
:101FA00008B5002902DBFFF752FF08BD4942FFF7E1
:101FB000D5FFFAE708B50022FFF7F2FF08BD08B524
:101FC0000122FFF7EDFF08BD70B510B104460025F2
:101FD0000DE004F0FFFC0025284670BD04F0FAFC7B
:101FE0000AE02369204698470135EDB23446002CBB
:101FF000F2D0A37B002BF1D0A37B013BDBB2A37318
:10200000002BE9D12668237B03F00F03627B12F0DB
:10201000020F05D02369002BE3D104F0DBFCE0E7DD
:10202000022B06D0012B09D06BB92046FFF758FDD3
:10203000DAE721460920FFF797FDD5E7214608207A
:10204000FFF792FDD0E704F0C5FCCDE72DE9F0479E
:1020500082B00E469046B2F5C17F3AD004460DD804
:10206000012A01D0412A75D1424631460020FFF7AE
:1020700035FF8146484602B0BDE8F087B2F5207FC3
:1020800068D1C31C23F00303CA1C22F003021344CB
:1020900003F110009A4262D8824263D8FFF712FD22
:1020A00081460028E6D004F11001014403310023E9
:1020B0000193CDF800803346324621F00301FFF74B
:1020C000B5FED9F8043013F0030FD3D004F082FC2E
:1020D000D0E785B20027B94613E0FFF7A1FEB9F1BA
:1020E000000F02D04846FFF76FFFB946C2E7B9F1CB
:1020F000000F2DD0CAF80070361BB6B20025002E96
:10210000B8D0BA460920FFF721FD07460028E4D0E1
:10211000EB1C23F003039BB2C3F5BD6304339CB2F5
:10212000B44228BF344605F11001014403310023B5
:102130000193CDF800802346324621F00301FFF7DA
:1021400075FE7B6813F0030FD1D004F043FCCEE79B
:10215000B946D1E704F03EFC4FF000098AE74FF0A2
:10216000000987E74FF0000984E7F8B50E460446FA
:1021700090B12789B74224D935466389AB420ED244
:10218000EB1A9DB22389F21B134423812468002C8F
:10219000F3D104F01FFCF0E704F01CFCE9E7227B1C
:1021A00012F00F0F05D1AB4203D0637B13F0020F87
:1021B00008D065812581206808B1FFF705FF00235D
:1021C0002360F8BD63681B1BE9182046FFF779FC04
:1021D000064620B1B442ECD004F0FCFBE9E704F081
:1021E000F9FBF7E70346002002E0013080B21B68EC
:1021F000002BFAD1704748B108B5837B0133DBB2BD
:10220000837303B108BD04F0E5FBFBE77047E8B159
:1022100038B50D46044629B914E0238928890344BA
:10222000238114462268002AF7D1228963899A42C1
:1022300009D123680BB104F0CDFB23892A8913440B
:102240002381256038BD04F0C5FBF2E77047002903
:102250006BD02DE9F8430646914698460D460A890B
:102260004A4565D3002866D002894B449A4265DB13
:10227000002719E004F0AEFB32E004F0ABFB32E0E3
:10228000B9F1000F5DD100277389434533D01DB1EB
:102290006A892B899A4239D01EB1728933899A4250
:1022A0003AD0B9F1000F3DD07489A4EB08046B89D2
:1022B000DB1B9C4200D31C464C4528BF4C46706833
:1022C000696822463944404406F070FCA044274423
:1022D000A4B2A9EB04041FFA84F973894345C9D356
:1022E0006B89BB42C9D36B89BB42CDD82D68002D09
:1022F000C6D00027C8E7366816B14FF00008C6E719
:10230000B9F1000F20D14FF00008C0E72B68002B77
:10231000C2D06FF0050006E03368002BC1D06FF02B
:10232000050000E00020BDE8F8836FF00F00704763
:102330006FF00F00F7E76FF00F00F4E76FF00F009A
:10234000F1E76FF00F00EEE76FF00F00EBE729B158
:1023500008B500230A89FFF77AFF08BD6FF00F0068
:1023600070472DE9F84348B388469146054649B37E
:1023700000273E4616E06C89E41AA4B2A14500D2BB
:102380004C4669682246194408EB060006F00EFC2C
:102390002744BFB22644B6B2A9EB04041FFA84F95D
:1023A00000232D68B9F1000F09D045B1002BE2D010
:1023B00069899942DFD85B1A9BB2F2E70027384659
:1023C000BDE8F8830027FAE738B514460A462189A4
:1023D000FFF73CFE054618B12146FFF7B8FF08B9E4
:1023E000284638BD04F0F6FAFAE7FFFF0346007A04
:1023F00038B1134A526892F830200132D2B290427A
:1024000012D141B1597A11F0200018D073B11B6874
:1024100073B1002070476BB11B686BB1084A5269F9
:1024200093420BD008467047002070470120704748
:10243000012070470120704701207047012070473C
:10244000740100202DE9F0478046244B1968586933
:10245000FEF759FE0746D8F804305E7A204B1C6818
:102460004FF000094D4616E0D4F814A0BAF1000F61
:102470000FD0D8F804901B4B42462146A069D047A4
:10248000E8B9D8F804304B4525D004F0A3FA4FF052
:1024900002092546E468DCB1237C9E42F9D1394625
:1024A0002046FFF7A3FF0028F3D0637C13F0010F51
:1024B000DAD06268094B1B699A42EAD1D4E72DB1A0
:1024C000E368EB60064B1A68E2601C604FF001099C
:1024D0004846BDE8F0874FF00209DAE774010020B2
:1024E0009801002084010020024688B103687BB176
:1024F00071B10B6863B1074B1B6800E0DB683BB14F
:102500001068D3F800C08445F8D108681860F5E772
:10251000704700BF980100204FF0000C0BE0164BF5
:102520004FF440421A800FE00CF1010C1FFA8CFCB2
:10253000BCF5804F1DD2104A138801339BB2138023
:102540004FF6FF729342EAD0002003280ED80B4BBF
:1025500053F820301B6833B1D98A074A1288914258
:10256000E2D0DB68F7E70130C0B2EEE7024B188833
:1025700070470020704700BF04000020D4A1000075
:1025800038B504460D4619B904F024FA00E0E468B1
:102590002CB1E36FAB42FAD10023E367F7E738BD14
:1025A00038B5054620B12B7D012B04D101240DE067
:1025B00004F010FAF7E704F00DFAF7E7054B53F8CB
:1025C000243029461868FFF7DBFF0134032CF5D9C6
:1025D00038BD00BFD4A1000010B50446037D012B17
:1025E00004D021460320FFF7BFFA10BD04F0F2F932
:1025F000F7E738B5054648B12B7D042B1AD0072BD9
:1026000021D0032B05D00024204638BD04F0E2F988
:10261000F2E7284603F0FBF9044608B905232B75B9
:10262000D4B1B4F1FF3FEFD16B8B43F008036B8360
:102630000024E9E7284603F0EAF904460028EFD130
:1026400005232B75ECE7284603F0E1F90446002842
:10265000E6D109232B75E3E7284603F007FBD3E710
:10266000094B186878B110B501E0204654B1C46830
:10267000438B13F0080FF8D023F008034383FFF7D0
:10268000B8FFF2E710BD70479C010020704710B5FD
:102690000446037D012B04D021460220FFF764FA93
:1026A00010BD04F097F9F7E770B506460D4659B12D
:1026B0007EB3337D83BB4AB1002003280ADC1F4B65
:1026C00053F820301B6813E01D4DF1E7FFF724FF9E
:1026D000024620B315B12B6803B13360F282194B67
:1026E0001A68F2601E6003F001FD002070BDDB6817
:1026F0006BB1D98A9142FAD1A3B11968A9B1BDB120
:102700002C68C4B1A142F2D16FF00700EEE70130AE
:10271000D3E76FF00F00E9E76FF00500E6E76FF031
:102720000100E3E76FF00700E0E76FF00700DDE787
:102730006FF00700DAE76FF00700D7E7D4A10000D9
:1027400070A10000A401002070B5164604460028C0
:1027500040D0037D002B41D1012B43D00320FFF754
:10276000F5F90546002841D023690361E38AC38255
:1027700001230375637D4375637A4372237A037281
:10278000E37AC372A37A837223680360E38A8BB10E
:10279000184B1B68A34205D053B1DA68A24205D09A
:1027A0001346F9E7DA68134B1A6001E0E268DA6071
:1027B0000023E3602046FFF76AFF0F4BAB610F4B2E
:1027C0001A68EA601D6003F091FC002306B13370C3
:1027D000284670BD05466FF00F03F7E76FF00E0354
:1027E0000025F3E705466FF00803EFE74FF0FF33EE
:1027F000ECE700BFA4010020AB2B0000A8010020E3
:1028000008B50022FFF7A0FF08BD38B5044698B10F
:10281000656A218D6818E36AB4F832E040F6683CD6
:10282000E64594BF03EB0E0203EB0C02821A002A6A
:1028300005DB6185C01A38BD04F0CCF8E8E75D1B04
:1028400005D4B5F5803F05D265850020F3E7002368
:102850006385FAE704F0BEF8F6E730B338B50C4606
:102860000546037D012B13D02B8D191989B241F236
:10287000D062914201D88B420DD941F2D0632B85B1
:102880002846FFF7C2FF40F2B353984205D838BD3F
:1028900004F0A0F8E8E72985F2E76B8B43F0020328
:1028A0006B83284603F0E2F9F1E7704750B110B5A9
:1028B0000446406808B1FFF787FB21460420FFF774
:1028C00053F910BD704738B110B50468FFF7EEFF3B
:1028D0002046002CF9D110BD704700B141757047FA
:1028E00038B5054668B10420FFF730F9044630B129
:1028F0001422294606F05AF96068FFF77CFC20464E
:1029000038BD04F067F8EEE700B10161704758B1D7
:1029100038B50C460546037D012B02D0C5F884402E
:1029200038BD04F057F8F9E7704758B138B50C4690
:102930000546037D012B02D0C5F8804038BD04F068
:1029400049F8F9E7704758B138B50C460546037D9C
:10295000012B02D0C5F8904038BD04F03BF8F9E7F0
:10296000704710B1027D012A00D070478161FCE7F9
:1029700068B170B50D4614460646037D012B03D0A1
:10298000C6F88C50747770BD04F024F8F8E77047EF
:1029900008B530B1044B1868044A12681044186036
:1029A00008BD04F017F8F5E700000020AC01002096
:1029B00038B505460C465AB144B1A38C33B1282B27
:1029C00009D9283B9BB29D4228BF1D46284638BDE9
:1029D00004F000F8F0E70023F5E710B50446406F77
:1029E00018B1FFF770FF0023636710BD08B310B57F
:1029F0000446037DE3B10A2B1AD0012B18D0806F57
:102A000018B1FFF7E1FA0023A367636F13B1204603
:102A1000FFF7E3FF4FF6FF732386E06EFFF753FFE8
:102A2000206FFFF750FF0023E3662367A4F86830A8
:102A300010BD704738B505460C4649B15DB12B68ED
:102A4000A3420BD07BB1DA68A2420AD01346F9E761
:102A500003F0C0FFF2E703F0BDFFF0E7DB682B6097
:102A600001E0E268DA600023E3602046FFF7BEFF82
:102A7000237D0A2B05D0012B03D0638B13F0010FAC
:102A800012D1237D012B0BD0E36E0BB103F0A2FF1B
:102A9000236F0BB103F09EFF636F0BB103F09AFF3E
:102AA00000232375E38238BD43F00203638320468D
:102AB00003F0DCF8E5E7FFFF002867D02DE9F047D9
:102AC00084B00D460446037D012B1AD0237D0A2BCA
:102AD0001AD0D4F85080D4F82490D4F890602769A4
:102AE000002B3AD1B4F816A0BAF1000F3FD0284B12
:102AF0001B68A34210D0ABB1DA68A24210D01346D3
:102B0000F9E703F067FFE1E721462248FFF792FF6C
:102B10002046FFF7BCFD1DE0DA681D4B1A6001E09E
:102B2000E268DA600025E560AA46206F08B1FFF789
:102B3000CAFEE06E08B1FFF7C6FE606F08B1FFF78E
:102B4000C2FEB5B92046FFF7A2FD1EB16FF00C0121
:102B50003846B04704B0BDE8F087B4F816A0214667
:102B60000D48FFF767FF0D4B01221A70DDE70025C6
:102B7000DBE7231D228B0292CDF804A000932346AD
:102B80004A464146204603F00EF8DBE7704700BF97
:102B9000A4010020B40100209C010020A00100201D
:102BA00008B50121FFF788FF08BD10B50C4629B113
:102BB0002046FFF7F5FF6FF00C0010BD03F00AFF91
:102BC000F6E7FFFF08B50A4B1B684FF0000C6046A4
:102BD00000E0DB6843B1196A064A1268521A62457E
:102BE000F7D394461846F4E708B1FFF7D9FF08BDBC
:102BF000B4010020AC01002010F0800F01D108B911
:102C000070477F2010B50138C2B2104B1B684FF0DF
:102C1000000C604607E00E4A1268186AA2EB000C2E
:102C20000A461846DB6863B1597D9142F3D3F9D166
:102C3000074C2468D3F820E0A4EB0E0EE645F1D350
:102C4000E9E708B1FFF7ACFF10BD00BF9C01002011
:102C5000AC01002070B50C46054638B903F0BAFE49
:102C600004E0E6682046FFF79BFF34462CB122685B
:102C70002B689A42F5D0E468F8E770BD00B338B528
:102C80000D460446036803B938BD0E4B1968FFF7BB
:102C9000E1FF0D4B19682046FFF7DCFF002DF3D054
:102CA0002B68002BF0D0094B1B6800E0DB68002B81
:102CB000EAD0196822689142F8D12A681A60F5E7CB
:102CC000704700BF9C010020A4010020A801002043
:102CD00038B50446A0F10803DBB2012B04D80D4B34
:102CE0001B680021084603E003F074FEF7E7DB6889
:102CF0005BB11A7DA242FAD1074A12681D6A521BC3
:102D00008A42F4D311461846F1E710B10021FFF7CB
:102D1000D3FE38BD9C010020AC01002038B505462B
:102D20000220FEF713FF044668B354B39C2200212F
:102D3000204605F063FF657540F66833A4F86430FB
:102D400041F2D06262852285FF22E2724FF4067260
:102D500062860622A4F84020E2874FF6FF722286A0
:102D60000122A4F848201A4A12682262194A1278ED
:102D7000A277A4F84A30184BC4F88430174BC4F833
:102D80009430204638BDFFF76BFCFFF71BFF022095
:102D9000FEF7DCFE04460028C7D10920FFF798FFA4
:102DA0000220FEF7D3FE04460028BED10820FFF71C
:102DB0008FFF0220FEF7CAFE04460028B5D1284640
:102DC000FFF71AFF0220FEF7C1FE0446ADE700BF81
:102DD000AC010020B1010020392F000000DD6D00A2
:102DE00008B54020FFF79AFF08BDFFFF30B585B05A
:102DF0000D46044680B125B1237D042B0FD0072B4F
:102E00000DD0237D012B63D0022B6DD0002B46D03B
:102E10002046FFF7EEFB3DE003F0DCFDEBE7A36FA0
:102E2000E3B1638B13F0100F1ED0231D228B02928F
:102E3000E28A019200932346626A216D204602F0E5
:102E4000B2FE2046FFF7D2FD2D4B1B68A3420ED0E9
:102E50009BB1DA68A2420ED01346F9E7228D41F207
:102E6000D0639A42CDD0DCE703F0B4FDDDE7DA6849
:102E7000234B1A6001E0E268DA600023E360214B33
:102E800001221A70204B1B68A34205D02046FFF791
:102E9000FEFB002005B030BD01F086FEF9E7E38AB5
:102EA0008BB11A4B1B68A34205D053B1DA68A2421A
:102EB00005D01346F9E7DA68144B1A6001E0E268BE
:102EC000DA600023E3602046FFF7E1FB0020E1E742
:102ED0002046FFF765FB21460D48FFF7ABFD204676
:102EE000FFF77AFB0020D5E721460548FFF7A2FD52
:102EF000044B01221A702046FFF7C9FB0020C9E7E6
:102F00009C010020A0010020E4010020A401002079
:102F1000A801002068B108B50346027D012A03D04C
:102F2000428B42F01002428301211846FFF75EFFF8
:102F300008BD6FF00F00704789B110B51446084600
:102F40003AB11189FFF789FC2046FFF73DF80020D0
:102F500010BD0BB10020FBE7FFF7DCFFF8E76FF0D7
:102F60000F007047F8B5A0B30446866F777B002347
:102F70008367D0F88450E5B1324601460069A8471E
:102F80000546F5B917F0200F21D0238D41F2D0620C
:102F9000934201D001332385D4F88460BEB100236D
:102FA0001A4621462069B04710F10D0F0FD1054692
:102FB0000DE00023324601461846FFF7BDFF0546E7
:102FC000DFE715F10D0F02D0A6676FF00405284664
:102FD000F8BD6FF00F05FAE770B51C4A137801339E
:102FE00013701B4B1C6813E043F0020363832046FD
:102FF00002F03CFE638B23F00303638313E023F0B2
:10300000080363832046FFF7F4FA10E0E5682C46D6
:10301000DCB1A27F0D4B1B789A42F7D0A377638B6C
:1030200013F0010FE0D1638B13F0080FE7D1E568CF
:10303000A36F002BEBD0074E002333702046FFF721
:1030400091FF3378002BE2D0CBE770BDB1010020B7
:103050009C010020A00100202DE9F04184B0A34A8A
:10306000136801331360A24A137801331370A14B24
:103070001C68002669E103F0ADFC6CE103F0AAFCDA
:103080006DE103F0A7FC6EE12646E4685DE194F88B
:103090004230052B40F2728101256AE003F09AFC70
:1030A0007EE1204602F02DFB60B1002384F89830C9
:1030B00094F89930062B00F2A080013384F89930FF
:1030C000002556E0204602F0D1FD0028EDD1002574
:1030D0004FE0B4F930309BB247F6FE72934201D80C
:1030E00001332386B4F93020B4F940309A4240DBF2
:1030F000204602F0B2FC20B1236F002B39D1E36EE1
:10310000BBB3237D022B14D094F842200C2A28BF95
:103110000C22B4F93C10B4F93E3003EBE1037649DC
:103120008A5C934047F6FE7293421EDC1BB2A4F801
:10313000403000232386B4F86030B4F8482093422E
:1031400028BF13465B08A4F84A30618E4A0092B249
:10315000934201D2A4F84A20A4F848100023A4F80E
:103160006A30204602F0BEFE03E047F6FF73DEE75A
:103170000125227D062A42D0637A13F0080704D085
:10318000042A49D0072A47D00027636F53B1236A26
:10319000564A1268D21AB4F9403003EB4303B2EB3B
:1031A000430F67D2237D032B68D0092B6FD0002DEE
:1031B00076D1E568237F0133DBB22377627F9342C8
:1031C000C0F0C180002323774C4A1370D4F88C30B0
:1031D000002B00F0B080214620699847474B1B78B0
:1031E000002B7FF444AF002800F0A78026462C4631
:1031F000ABE00125BDE70025BBE70025B9E7638B00
:1032000013F0100FB8D0216A384B1B685B1A282BBB
:10321000B2D90135EDB2AFE7344B1A68236AD21A3E
:10322000D4F8941001F5242303F6B8433448A0FBE6
:103230000303B2EB531F03D90135EDB20127A4E715
:1032400094F89B302F4800FB03112D4BA3FB013159
:10325000B2EB511F01D8002797E7204602F062FE2B
:1032600030B994F89B30013384F89B3000278CE709
:1032700000278AE72046FFF7B0FB93E7216A1B4A45
:103280001268521A282A90D90135EDB28DE7226AC8
:10329000164B1B689B1AF02B89D90135EDB286E7D6
:1032A000D4F890502046FFF7A1FB6EB3114B1B687A
:1032B000A34217D0E368F36087BBD4F81080E768B7
:1032C0002046FFF7E4F90D4B00221A701DB16FF094
:1032D0000C014046A847094B1B78002B7FF4C7AE72
:1032E0003C4632E003F076FBE4E700BFAC0100208F
:1032F000B10100209C010020C4A10000A001002019
:10330000D34D6210F8240100504B1B68A34201D03A
:1033100003F060FBE2684D4B1A60CDE7231D626A43
:10332000216D208B0290E08A019000932346204675
:1033300002F039FCC1E7002050E7204602F096FC7D
:1033400026462C4601E026462C46002C4BD0237DF9
:10335000002B3FF490AE237D012B3FF48FAE237DF5
:103360000A2B3FF48EAEA27F394B1B789A423FF472
:103370008BAEA377237D022B3FF489AE94F84230C5
:103380000B2B3FF6F5AE94F89950002D3FF4A1AE0B
:10339000236F0BB103F01EFBE36E002B3FF47EAEF8
:1033A00094F89A300B2B3FF624AF94F89930013BF8
:1033B000284AD25C94F89830934202D2013384F8C0
:1033C000983094F898309342FFF415AFB4F8601039
:1033D00000297FF466AE204602F0C6FD00283FF4C7
:1033E00064AE0025C5E61C4B1D6807E02A6A1B4B2E
:1033F0001B689B1AF02B08D82C46ED6815B32B7D63
:103400000A2BF3D003F0E6FAF0E72846FFF7EEFACE
:1034100074B1114B1B68AB4207D0EB68E360EE68F8
:103420002846FFF734F93546E8E703F0D3FAF4E726
:10343000094B1B68AB4201D003F0CCFAEA68064B9B
:103440001A60ECE704B0BDE8F08100BF9C010020E9
:10345000B1010020E4A10000B4010020AC01002073
:1034600008B5FFF7B9FD064A13780133DBB21370D4
:1034700013F0010F00D108BDFFF7EEFDFBE700BF21
:10348000B00100200A4A1388591C1180094A1168AA
:1034900019B1094A1288934204D2084A12681344A7
:1034A000187D7047DBB2D2B29B1ADBB2C85C7047A2
:1034B000E8010020F4010020F0010020EC010020D0
:1034C00038B50446E8B1204B1B88002B3AD01F4B7F
:1034D00000221A801D4B1A881B4B1B889A4231D23E
:1034E000FFF7D0FF0128F5D002280DD050B3FFF729
:1034F000C9FF012826D9154B1A88104402381880B4
:10350000E8E703F067FADEE7FFF7BCFF042819D10C
:103510000E4B1B8801330C4A1288934212DAFFF7D4
:10352000B1FF85B22D02ADB2FFF7ACFF80B205430B
:103530006B1E9BB240F2B352934201D940F2B45594
:103540006586C7E738BD00BFF8010020E80100200C
:1035500010B5044630B10F4B1B7813F0100F04D197
:10356000002010BD03F036FAF5E7638B13F0100F5F
:1035700006D1D4F890301BB16FF00E012069984746
:1035800021460548FFF756FA2046FFF780F801204C
:10359000E7E700BFDC0100209C010020204B1B78E6
:1035A00013F0040F3BD130B585B0044608B31C4B73
:1035B0001B7813F0020F1FD01A4B1A68636AD11AD6
:1035C00000291FDB218D0B449B1A002B1ADB164BA5
:1035D0001968164B164800880D8802954988019194
:1035E000191F0091024413490968204602F0DBFAD2
:1035F0000BE003F0EFF9DAE713F0010F02D00E4B06
:103600001B6823620A4B1B880BB905B030BD638B66
:1036100043F002036383204602F028FBF5E770477E
:10362000BC010020E0010020EC0100208801002006
:10363000FA010020B8010020AC010020454B1B78A6
:1036400013F0040F40F08480F0B585B0044648B113
:10365000404B1B7813F0100F07D113F0020F19D154
:1036600005B0F0BD03F0B6F9F2E73B4B19683B4BF0
:103670003B4A10883B4A12680C88029449880191A1
:10368000191F009102443849096853F8100C02F0E0
:10369000A1FAE5E7607DFFF741FB0546002849D028
:1036A000324B5A6902601B694360E38AC3822A4E27
:1036B00033681B880383032303752A4F3B68013358
:1036C0004362C362FFF764F9A86528656864E8652A
:1036D0003B68013B6B6523692B61EC67637A03F000
:1036E0000C036B72237A2B72214B1A68EA601D60FF
:1036F00002F0FCFC1F4B01221A702846FFF7E0FE87
:103700003368DB89A5F86030A5F862306E8E2C1D19
:103710002046FDF719FB014622463046FFF748F9DF
:1037200068861221284602F0F2F860B9284602F0B5
:103730009DFA95E7A369002B92D04FF0FF3200214C
:10374000206998478CE700212846FFF7B5F987E7FD
:10375000704700BFBC010020EC0100208801002060
:10376000FA010020E0010020B801002074010020CF
:103770009C010020A00100202DE9F84306460C46DC
:10378000984603E003F026F921E03C46002C39D0AE
:103790001E4B1F6823695868FEF757F80546B4F8B2
:1037A000089023699889FEF74BF810F0030F27D093
:1037B000012081444D447D1B002D23DB2768606878
:1037C000FEF710FD0546B6F866308342DAD3B6F848
:1037D0006600451BA6F8665023890D4A11880B44E4
:1037E00013802046FFF762F8B6F86630002BCCD085
:1037F000002FCAD1B8F1000FC7D103F0EBF8C4E72E
:103800000020D6E72046BDE8F88300BFB8010020BD
:10381000D401002070B50C46054658B12B69988933
:10382000FEF70EF810F0010F0CD02046FFF74BF812
:1038300000242CE003F0CEF8F0E726682046FFF7DE
:1038400035F83446CCB12B89154A126813442169E6
:103850004A68208902449B1A002B0EDB8889FDF7F9
:10386000EFFF10F0010FE8D02B699E890120FDF7D2
:10387000E7FF2B6906439E81DFE744B123695A685D
:103880002B89074909680B44D31A002B01DB2C60F4
:1038900070BD521A91B229816868FEF766FCF6E79E
:1038A000E0010020F8B50446002862D0237D032BF8
:1038B00062D9914B1B7813F0100F00F03881B4F8E7
:1038C0006010A36DCE18626D8C480568501B0028EF
:1038D0000ADBAA4253D08A4A1268934214D1894B18
:1038E0001B68DB8999420FD2864B1B68DB8999B232
:1038F000A4F86030B4F86220914201D9A4F8623093
:1039000065657F4B1B68A365636C7D4A11685A1A15
:10391000002A3FDB7C4A1288002A40F00081A26D19
:10392000B4F860000244B24240F0F980B4F93020AB
:10393000002AC0F2F4808B4240F0F18094F84330CA
:10394000FF2B02D0013384F8433094F84330032B2B
:1039500008D9B4F84810628E0A4492B2914214D841
:10396000A4F84820022B40F2DA80204602F0EAF860
:10397000D5E003F02FF899E703F02CF899E7604AB7
:1039800012689A1A002AA6DAAEE74FF6FF72A4F878
:103990004820E7E7CA1A012A00F1BE80226D521AB8
:1039A000002AC0F2B980628B12F0040F09D022F015
:1039B00004026283B4F84A20A4F848200022A4F844
:1039C0006A20002084F84200B4F93C50E28F02EBF8
:1039D000E502A4F840208AB29BB2D31A9BB284F8C5
:1039E00043006164227D032A17D9B4F84820B4F853
:1039F0004A108A4249D2618B11F4006F3ED00120F7
:103A0000618E00FB01F189B2994294BF5018D01821
:103A100083B29A4234D8A4F84830E36E3B4A216F0F
:103A20002046FFF7A9FE03462067394AE16E20468B
:103A3000FFF7A2FEE066226F002A47D0002323860C
:103A400000232377002845D0B4F864303149098831
:103A50000B44A4F86430638B13F4006F5FD0002A2A
:103A60003BD013695868FDF7F0FEE36CC01A0028DC
:103A700055DB638B23F40063638350E00220BFE7D0
:103A80004FF6FF73A4F84830C7E7B4F86A100B4448
:103A90009BB2994210D8A4F86A30B4F86A309A42BE
:103AA000BBD89B1AA4F86A30638E13449BB29A4227
:103AB00007D8A4F84830B0E74FF6FF73A4F86A308F
:103AC000EBE74FF6FF73A4F84830A6E74FF6FF7315
:103AD0002386B5E7A4F86830B6E738B103695868BB
:103AE000FDF7B3FEE36CC31A002B18DB638B23F4E2
:103AF0000063638313E000BFBC010020E0010020ED
:103B0000B8010020EC010020FA010020ECA1000027
:103B1000F4A10000D4010020204602F077F8636B86
:103B20002BB1A26B9B490968521A002A29DB9A4BD8
:103B30001B88002B00F0E982227D062A00F2E58234
:103B4000616A964A12688E1A012E5DD413445B1A7C
:103B5000012B59D4924B5D68002D38D04FF6FE737F
:103B60009E4237D8B6B28E4B5B681B89B34234D3C2
:103B70008B4B1A89921B1A815B681A89921B92B22D
:103B800034E0884A16889AB2B31A9BB2B4F93C0062
:103B9000C0F3CF055B1B99B21BB280B2014409B2DE
:103BA000A187002B0FDBB4F93E20A3EBA2039BB24D
:103BB00092B213449AB2E38702EBE101A4F84010F9
:103BC00000236363B3E7931B2B441BB2EBE702F0C4
:103BD00001FFC3E702F0FEFEC4E702F0FBFEC7E709
:103BE000F31A9EB22A8100236B812D686B89B34240
:103BF000F6D331462846FEF7B1F9636A674A136087
:103C0000674A1269536002E0521A002A14DB634BC0
:103C10001A68616A531A002BC0F27382238D0B4419
:103C20009B1A012B00F16D828A420AD0656F002D2C
:103C300000F08F810026B1E1638B43F002036383C0
:103C4000E5E7574B1D891B699889FDF7F9FD10F0D1
:103C5000030F15D001232B449BB24F4A1380228DB2
:103C600093420FD8636F002B00F0AA804C4B1B6966
:103C70009889FDF7E5FD10F0010F4ED1656F59E011
:103C80000023E8E7464B1B699889FDF7D9FD10F042
:103C9000010F2AD1228D424B1A811B699889FDF7A9
:103CA000CFFD10F0020F03D03D4A1389013B138171
:103CB0003B4E31897068FEF758FA35893369988927
:103CC000FDF7BEFD10F0030F21D001232B449BB262
:103CD000314A1380314A12681344626A218D0A44C2
:103CE0009342BFD002F076FEBCE72D4E336998892F
:103CF00005B225F47C5580B2FDF7A2FD00F03E0030
:103D0000FDF79EFD03B232691D439581C2E7002392
:103D1000DCE703686367FEF7C9FD606F0028F8D130
:103D20004EE000231F441C4B1F802E682846FEF7E0
:103D3000BDFD3546002D37D0174B1B88174A12683A
:103D4000134429694A68288902449B1A002B2BDBFB
:103D50008889FDF775FD10F0010FE6D0104B1B6947
:103D60009889FDF76DFD10F0020FDED10C4E33691E
:103D70009F890120FDF764FD336907439F813789DF
:103D800033699889FDF75CFD10F0030FC9D001235A
:103D9000C8E700BFB8010020FA010020E0010020C0
:103DA000C0010020AC0100204DB12B695A68994B2D
:103DB0001968994B1B880B44D31A002B28DB6567C5
:103DC000954B1A88934B1B6813446362238D9A4268
:103DD0004AD8238D904A12889B1A23852046FEF7E5
:103DE00014FD8E4B5B681A8922B18D4A13608B4B90
:103DF00000225A60894B1B699889FDF721FD10F05C
:103E0000010F55D0874A137843F0200313704FE019
:103E1000521A824B1A811B699889FDF711FD10F027
:103E2000020F03D07D4A1389013B13817B4F3989EF
:103E30007868FEF79AF93E893B699889FDF700FD9D
:103E400010F0030F0ED0012333449BB2724A13804B
:103E5000704A126813442A6952689342AFD002F044
:103E6000B9FDACE70023EFE702F0B4FDB1E70023B2
:103E700030E000233CE002F0ADFD3CE0002343E0F5
:103E8000674B196000236B602B699889FDF7D8FC9C
:103E900010F0010F07D0634A137843F0200313702A
:103EA000237D042B42D02B6863672846FEF7FEFC77
:103EB000656F002D3DD02A695368616A8B4238D105
:103EC00054490B602E899089FDF7BAFC10F0030F5E
:103ED000CDD001231E44636A33446362278D2E894B
:103EE0002B699889FDF7ACFC10F0030FC1D00123BA
:103EF0001E44B742BFD32E892B699889FDF7A0FCD9
:103F000010F0030FBAD001231E44238D9B1B238581
:103F10002046FEF77AFC69680B89002BB4D0404B31
:103F200018680028ACD0FEF772F9ABE707232375B9
:103F3000B9E7638B13F0010F07D023F001039BB2A5
:103F4000638343F002036383EEE043F00103638382
:103F5000EAE03248FEF7C4FC606704E02F4B1A89A0
:103F60002B899A4203D8204601F050FEDCE02B4812
:103F7000FEF7B6FC03460028F5D02EB13060294686
:103F80001846FFF747FCEEE76067F8E7D11A00290B
:103F900029DB29682E46002936D00D46002DE2D0B7
:103FA000286943689A42D9D0002EEFD03169496818
:103FB000511A0129EDD4991A0129EAD41748FEF7BC
:103FC0008FFC07460028CED0124B1A683369596817
:103FD00033890B44D31A002B0FDB37602946384650
:103FE000FFF718FCBFE70D48FEF77AFC0028BAD0AF
:103FF00060672946FFF70EFCB5E7521A91B231818E
:104000007068FEF7B2F8E8E79B1A002B0CDB0D4650
:10401000C4E700BFE0010020FA010020C001002039
:10402000D8010020DC0100208089FDF709FC10F098
:10403000010F98D13D48FEF753FC2860002892D02C
:104040003B4B1B682A6951682A890A449A1A002A3C
:104050003BDB636A228D1344364A1288344909686F
:104060000A449B1A002BBFF67EAF2B681B69988908
:10407000FDF7E6FB10F0010F2ED1626A238D134489
:104080009BB22A682A4909685B1A13812B6819892F
:104090005868FEF76AF82B681D891B699889FDF737
:1040A000CFFB10F0030F2AD001232B449BB2214AEF
:1040B00013801F4A12681344626A218D0A44934296
:1040C0003FF451AF02F086FC4DE75B1A99B22981AB
:1040D0006868FEF74AF8BCE72B681B69988906B246
:1040E00026F47C5680B2FDF7ABFB00F03E00FDF7F6
:1040F000A7FB03B22A6812691E439681BDE700231D
:10410000D3E7204601F082FD0EE0094B1A68636A8E
:10411000D11A002904DB218D0B449B1A012B03D5F6
:10412000638B43F002036383F8BD00BFC00100202E
:10413000E0010020FA01002070B584B00446C8B147
:10414000884B1B7813F0040F30D0217D022914D046
:10415000636A854A1268934218D0D11A002911DB8C
:10416000218D0B449B1A002B0CDB638B43F0020365
:10417000638307E002F02EFCE2E7226D7B4B1B68B5
:104180009A4203D00025284604B070BD59B1784A40
:10419000137843F008031370638B23F001036383E8
:1041A0006FF00D05EFE702F015FCF0E713F0020FDA
:1041B00004D0237D023BDBB2012B28D8638B13F0A4
:1041C000100F02D16B4B1B682362002384F89B30D5
:1041D00084F89A302046FFF773F9624B1A7812F090
:1041E000020105D0237D023BDBB2012B00F23882B5
:1041F000237D023B072B00F23582DFE813F00E002F
:10420000A500350146019D013501CC011702638BE4
:1042100043F0020363830025B5E702F01203122B7B
:1042200004D012F0100F70D10025ACE7636C01339D
:104230004E4909688B42F4D14B4B1B685A1C626291
:10424000E26261644C4A1268D289A4F86020A4F842
:104250006220013B636504232375668EE5182846BA
:10426000FCF772FD01462A463046FEF7A1FB608648
:10427000420041F21C13934238BF1346B3EB800F48
:104280002AD983009BB2A4F84830B4F866306BB3E7
:10429000B4F86630013BA4F86630256F4DB32B6847
:1042A00023672846FEF702FB236F53B300232386C0
:1042B00084F84230D4F8883043B100222146206986
:1042C0009847054610F10D0F3FF45DAF638B43F047
:1042D00002036383002556E741F21C139A4202D978
:1042E00043009BB2CFE741F21C13CCE702F072FB14
:1042F000CEE7E56E15B12B68E366D2E702F06AFB04
:10430000F9E74FF6FF732386D4E71B4B19681B4B65
:104310001B4A1088144A12680D8802954988019139
:10432000191F0091024411490968204601F03BFC25
:1043300094F84230052B01D9002524E70025258675
:10434000204601F0E0FD1EE7E1B1636A013B064A49
:104350001268934201D0002515E7204601F0BAFB10
:10436000002510E7BC010020E0010020B80100207A
:10437000DC010020AC010020EC01002088010020BD
:10438000FA01002012F0100F00F06E81944B1968B2
:10439000636CCB1A012B54D4236D5B1A002B50DBBA
:1043A00004232375E36F002B32D09B696BB3E36F5B
:1043B0009B69002B34D0002221462069984705468E
:1043C00040BB2046FFF76EFA864B1B8813B1013BBA
:1043D000844A1380638E590041F21C128A4238BF0E
:1043E0000A46B2EB830F22D99B009BB2A4F8483057
:1043F0007D4B1B7813F0200F3FF4C5AE638B43F069
:104400000203638307232375BDE602F0E3FACEE7D8
:104410006FF0050515F10D0F05D16FF00C05B2E633
:104420006FF00F05F6E72046FEF7BAFBF5E741F21D
:104430001C12914202D95B009BB2D7E741F21C13D8
:10444000D4E76A4B18686A4B6A4A15886A4A126848
:104450000688029640880190181F00902A44204642
:1044600001F0A1FB00258EE62046FFF71BFA5E4B0C
:104470001B7813F0200F00F0F980638B43F00203E8
:1044800063830723237500257DE62046FFF70AFA9C
:10449000554B1B7813F0200F39D0584B1B7813F075
:1044A000100F04D0226D4E4B1B689A4207D0638BCD
:1044B00043F00203638308232375002563E6E36E5C
:1044C000002BF4D1638B43F0020363832046FEF795
:1044D0008DFA4B4B1B68A34205D053B1DA68A24258
:1044E00005D01346F9E7DA68454B1A6001E0E26847
:1044F000DA600025E560434B01221A700A23237518
:10450000414B1A68E2601C6001F0F0FD3BE63B4B5A
:104510001B7813F0100F00F0AB80226D304B1B683E
:104520009A4201D000252EE6E36E0BB100252AE663
:1045300006232375002526E62046FFF7B3F92A4B0C
:104540001B7813F0200F01D100251CE6638B43F08C
:10455000020363832046FEF749FA294B1B68A342F6
:1045600005D053B1DA68A24205D01346F9E7DA68FC
:10457000234B1A6001E0E268DA600025E560214B18
:1045800001221A700A2323751F4B1A68E2601C600F
:1045900001F0ACFDF7E52046FFF784F9174B1B78D7
:1045A00013F0100F66D0226D0D4B1B689A4201D09C
:1045B0000025E8E5E36E0BB10025E4E52046FEF7B3
:1045C00015FA0F4B1B68A34205D00BB3DA68A24261
:1045D0001CD01346F9E7DA68094B1A6018E000BFEF
:1045E000B8010020D4010020DC010020EC010020F3
:1045F00088010020FA010020E0010020BC01002019
:104600009C010020A0010020B4010020E268DA60D3
:104610000025E560194B01221A700A232375184BF7
:104620001A68E2601C6001F061FDACE52046FFF70E
:1046300039F9144B1B7813F0100F1DD0226D124B5B
:104640001B689A4201D000259DE5E36E0BB1002561
:1046500099E50E4A137843F010031370002592E594
:10466000002590E500258EE500258CE500258AE5EE
:10467000002588E5002586E5002584E5A0010020C9
:10468000B4010020BC010020B8010020DC010020A2
:10469000F0B585B0044650B16268694B1A60638911
:1046A000132B07D82046FDF78FFC05B0F0BD02F0B4
:1046B00091F9F1E7634B19685869FCF724FD00286C
:1046C000F0D1604B5B6903F0F003E02BEAD05E4B66
:1046D0001A1D0092228906212046FDF779F900284B
:1046E000E0D1574B1B689889FDF7AAF8C0F3073152
:1046F0008900C9B21329D5D98BB222899342D1D866
:10470000A3F1140292B2514802805148002505607D
:10471000608983422AD92368002B63D01421204664
:10472000FDF71CFC65894B4B1D80484B1F887E1B89
:10473000B6B229462046FDF711FC20684389B342F2
:10474000B0D34268424B1A603146FDF707FC23891B
:10475000ED1B1D4425816389002B46D122892368E6
:104760001B899A4207D002F035F904E0394B1A80D0
:104770002046FDF7F3FB324D2E683088FDF760F8D8
:1047800030802E687088FDF75BF870802E68706846
:10479000FDF75BF87060304B18602E68B068FDF76D
:1047A00054F8B0602D4B18602E68F089FDF748F87A
:1047B000F0812B689889FDF743F800F03F00284B03
:1047C00018702389274A138010F0030F06D05A1C53
:1047D00092B224490A8093423FF664AF224B1D688F
:1047E000002616E002F0F6F898E702F0F3F8B5E7D5
:1047F00002F0F0F812E002F0EDF812E002F0EAF850
:1048000012E0298B0E4B1B681A8891422ED02E463F
:10481000ED68002D45D02B7D002BE9D02B7D0A2B98
:10482000E9D02B7D012BE9D02A7A002AE9D0054B6B
:104830005B6893F830300133DBB29A42E1D0E6E7AF
:10484000EC0100207401002084010020F801002008
:10485000F4010020F0010020E0010020B801002058
:10486000BC010020FA0100209C010020EA8A5B883C
:104870009A42CCD16A686F4B1B699A42C7D12A68A9
:104880006C4B5B699A42C2D1EB68AB4262D02EB1ED
:10489000EB68F360684B1A68EA601D60EB68AB4236
:1048A0005BD0002D5CD0002D00F04A81634A0023CC
:1048B0001360218911815460614909681161614A5D
:1048C0001360614A1370614A1380614B1B7813F0C7
:1048D000080F03D0637B43F001036373AB6F6BB1CD
:1048E0002846FEF73FFB10F10D0F00F09C80AB6FE8
:1048F00023B1584B1B88002B40F09580564B1D6010
:104900002846FFF719FC10F10D0F13D04E4B1B7802
:1049100013F0080F00F0A680D5F890301BB16FF0AF
:104920000D012869984729464348FEF783F8284631
:10493000FDF7ADFE0023484A1360424A13603F4B27
:10494000586800283FF4B1AEFDF73EFB3B4B002218
:104950005A60AAE602F03EF899E702F03BF8A0E7B9
:104960003E4B1D6809E002F035F80AE0298B344B14
:104970001B681A88914210D0ED681DB32B7D0A2B5D
:10498000F1D12A7A002AF1D02A4B5B6893F83030B3
:104990000133DBB29A42E9D0EEE7EA8A5B889A42B9
:1049A000EAD16A68234B1B699A42E5D12A68214BF8
:1049B0005B699A42E0D12846FEF7F0FD2046FDF7FC
:1049C00003FB72E6264B1E683046294607E0C28A82
:1049D0001B4B1B685B889A420ED00146C06898B199
:1049E000027A002AF3D0134B5B6893F8303001331E
:1049F000DBB29A42EBD0F0E703680E4A5269934269
:104A000002D008B1002BE8D100283FF44CAF21B10F
:104A1000C368CB60C660124B1860FEF70FFE2046DD
:104A2000FDF7D2FA41E66B8D002B83D1284601F0C9
:104A3000EDF87FE7740100209C010020C0010020F8
:104A4000EC010020D8010020DC010020D40100206E
:104A5000BC010020FA010020E4010020B401002084
:104A6000A8010020474B1A8862B1D5F8803033B1D5
:104A700029462869984710F10D0F3FF45BAF414B71
:104A800000221A802846FEF763FD00287FF452AF0B
:104A90003D4B1B68C3B1AB6F0BB101F09BFF6B8B40
:104AA00013F0100F28D1D5F884406CB30023364A98
:104AB000126829462869A04710F10D0F3FF43AAF5C
:104AC00010B1314B1B68AB67304B1B7813F0200FD4
:104AD00005D0AB6F03B35A7B42F020025A732C4BC4
:104AE00000221A602846FEF733FD00287FF422AF2B
:104AF000284601F0BBF81DE7234B1868FDF764FA60
:104B00002846FEF74DF815E700231F4A126829468C
:104B10001846FEF711FACFE72B8D41F2D06293428F
:104B200001D001332B85D5F88440002CD7D0002349
:104B30001A4629462869A04710F10D0FCFD1F9E692
:104B4000144B1B689889FCF77BFE10F0040F03D010
:104B50002046FDF739FAA8E50E4B19680E4B0F4AAF
:104B600010880F4A12680D88029549880191191F13
:104B7000009102440B49096853F8100C01F02AF81F
:104B8000E6E700BFD4010020D8010020DC010020AE
:104B9000E4010020EC01002088010020FA0100203F
:104BA000E0010020B8010020024A137843F010030E
:104BB00013707047DC010020B2F800C084441FFA73
:104BC0008CF000EB1C4080B211F0010F07D0197877
:104BD000C1F101011970030A43EA002080B210807C
:104BE000704738B50C460546B0B12B7D042B05D077
:104BF000072B03D0022B01D0032B31D19CB3B5F886
:104C00006430A3420BD3B5F86630072B0ED8E3B15E
:104C10002B6F93B1002027E001F0DCFEE5E76B8B02
:104C200043F080036B834FF0FF301DE06B8B43F04C
:104C300080036B834FF0FF3016E0EB6E0BB100206A
:104C400012E001F0C7FE00200EE02B6F1BB101F057
:104C5000C1FE002008E0EB6E002BF8D1002003E03D
:104C60006FF00A0000E0002038BD10B5044628B1FE
:104C700063689B7B012B04D1002010BD01F0AAFECC
:104C8000F6E70120F9E738B514460D4661B16B68C7
:104C900003F11402A40004F0040414341C449442EC
:104CA00001D001F097FE38BD01F094FEEFE72DE949
:104CB000F84306460C461546089F9DF828909846EE
:104CC000CBB1DFB1AC4221D29DF8243013F0020FFA
:104CD00008D17B8B13F0400F2DD1B9F1000F01D01B
:104CE000FB6E73B104F2B75121F003018D4228BF6E
:104CF0000D46A9B20BE001F06DFEE2E701F06AFE9D
:104D0000E0E73B6F002BEDD1214600E021464FF458
:104D100020723046FDF79AF9054648B103680BB199
:104D200001F058FE6B891B1BA8F800302C816C81A8
:104D30002846BDE8F8832146E9E72DE9F84F0E46FD
:104D4000904699469DF828708246002844D0002E4F
:104D500045D0BD0005F004050420FCF7F7FE04462D
:104D600000283FD0477300230360466033891FFA51
:104D700085FB5B453AD33189A1EB0B0121810023EF
:104D80006381237317F0040F33D114213046FDF7EC
:104D9000E0F888BB63685E682661BAF81600FCF725
:104DA0004FFD30802669BAF81800FCF749FD708085
:104DB00026694846FCF749FD7060A808053025695A
:104DC00048EA0030FCF73CFDA881236900229A7470
:104DD000DA742046BDE8F88F01F0FCFDB7E701F07A
:104DE000F9FDB6E73046FDF7EFF8F2E701F0F2FD26
:104DF000C1E701F0EFFDC8E72046FDF757FD0024AD
:104E0000E7E72DE9F04106460C469846114489B281
:104E100014314FF4207289B22220FDF717F90746AA
:104E200048B304F113034289934227DA7D68BDF841
:104E30001800FCF705FD2880BDF81C00FCF700FDFC
:104E40006880C5F804803046FCF7FFFCA860A40821
:104E500005342403A4B29DF820002043FCF7F0FCA5
:104E6000A881BDF82400FCF7EBFCE88100232B743B
:104E70006B74AB74EB743846BDE8F08101F0AAFDA9
:104E8000D4E7F0B585B00D4616461F460446A0B1DE
:104E9000638D039310230293238B0193E38A009382
:104EA0003B4632462946606AFFF7ABFF18B1636A9A
:104EB000628D1344E36205B0F0BD01F08BFDE7E7BE
:104EC00070B584B006460D46144603B3089B0BB379
:104ED0002846FCF7BAFC03464DF216020392142250
:104EE0000292BDF828200192BDF8242000920022F1
:104EF00011462046FFF785FF044628B100231A46D5
:104F000001463046FFF7BFFE204604B070BD01F0F9
:104F100061FDDBE701F05EFDDAE708B508B1007A74
:104F200018B91046FBF710FF08BDFCF767FFFBE759
:104F30002DE9F04784B00D461646044650B165B1E0
:104F400076B12046FFF791FE074660B1002004B01D
:104F5000BDE8F08701F03EFDF1E701F03BFDEFE732
:104F600001F038FDEDE7D4F81080686AFCF76DFCBD
:104F7000C8F80800D4F81080688DFCF761FCA8F828
:104F80000E006B6A6A8D1344EB62D4F8109009F13D
:104F90001408637B13F0010F68D1B5F93030002B92
:104FA00073DB6B6B002B73D02369626851685B1AEB
:104FB0009BB25189C91A518161680A89D31A0B8140
:104FC00062682369536000221A745A742269637BF1
:104FD0009B0003F0040314331344434501D001F054
:104FE000F9FC637B13F0040F5BD0D4F80490B9F89C
:104FF00008A023699889FCF723FCC0F30F339B00BA
:1050000005F10408CDF80480009503F0FC03524636
:1050100006214846FCF703FD237B3BB16289130A56
:1050200043EA02236381002323730127C3439BB216
:105030006289134403EB13439BB22269DB4313825F
:10504000029606230193AB7A0093EB7A42462946F7
:105050006068FCF743F8002F3FF479AF6289130AC8
:1050600043EA022363810123237370E72A1D31463B
:1050700040F2B450FDF79CFC40F00170FCF7E5FBFA
:10508000C9F8140009F1180887E700232B8688E780
:105090000C4B1B686B6323695868FCF7D6FBA8634D
:1050A00082E76368B3F8088023699889FCF7C8FB36
:1050B000C0F30F339B0003F0FC03984595D001F03B
:1050C00089FC92E7AC0100202DE9F04385B005464C
:1050D0000C4616461F46DDF83080B8F1000F1FD091
:1050E000D4F8049000973346228906212046FCF725
:1050F0006FFCA9F81000B5B1EB7AAA7ACDF8088058
:105100000621019100923A4631462046FBF7E6FF20
:1051100005462046FCF758FF284605B0BDE8F08359
:1051200001F058FCDCE70022FF23E7E7F0B583B08D
:10513000044615461E460F4671B1324629462046A2
:10514000FFF7EBFE58B1009033462A463946204619
:10515000FFF7BAFF03B0F0BD01F03CFCEDE73846C5
:10516000FCF732FF6FF00300F4E72DE9F04F93B046
:10517000079106930023ADF84630ADF844308DF822
:105180004330002800F0AD8292468046B0F862308D
:105190005B08B0F832B05B4528BF5B4603B19B4665
:1051A000079B002B00F0A18251464046FFF719FDF6
:1051B0000990002840F0A781B8F86660D8F86C9094
:1051C000B9F1000F00F0C8804B4608931B68002B14
:1051D000FBD19946089B5C7BA40004F004041B8966
:1051E00023449B4523DB089B1B891C44A4B2ABEBE7
:1051F0000404A2B20B92B8F868300A93ADF84630B6
:10520000DBB1934216D8BDF846301A46534528BF45
:1052100052460B998A4228BF0A4692B20A929B1ABA
:10522000ADF846308B1A9BB20B93089F06E001F055
:10523000D1FBD8E701F0CEFBE5E74F46BDF846309D
:1052400013B10A9B534553D10A99514580F06481AB
:105250000B9A002A00F06A81089B1B890D93002B92
:1052600000F06881AAEB01039342A8BF13469BB2EA
:105270000D93069B13F0010F3DD1089BD3F80490CA
:105280004A4613461268002AFBD191461A7B12F057
:10529000C00F05D15A685B891344079A934251D0D5
:1052A00001220D990020FCF7D1FE8146002800F074
:1052B0000782079B0A9A13444360FCF793FF064456
:1052C000B6B200230B930D9C2146079B0A9A9818AF
:1052D000FCF7B4FBC0430DF1430311AA214680B291
:1052E000FFF76AFC0A9B0D9A9C18A4B2089F17E16D
:1052F00001F070FBA8E701230293069B0193CDF810
:1053000000800DF146030D9C21460020FFF7CFFCE5
:105310008146002800F0D2812246079B0A9819187E
:10532000D9F80400FCF7B4FB0DF1430311AA2146A0
:10533000FFF742FC4846FCF755FF0644B6B200238F
:105340000B93CFE70A9B13B90D9B0B93BBE701F0BF
:1053500041FB0D9B0B93B6E7B8F8684034B90D9448
:105360000B940A944F46CDF82090D9E001F032FB1F
:105370004F46CDF8209000240D940B940A94CFE072
:10538000059BB3FA83F35B090293069B0193CDF867
:1053900000800DF146035A4629463620FFF787FC68
:1053A0000746002800F08E814389AB420CD32A4681
:1053B000079B19197868FCF76BFB0DF13F0310AAE6
:1053C0002946FFF7F9FB13E001F004FBEFE701F0DA
:1053D00001FB4BE0C9F804704FF420720021362025
:1053E000FCF734FE074600285FD04946FCF70FFF64
:1053F0003846FCF7F7FE0644B6B2082E5BD8D8F85C
:105400005C3000220092234439464046FFF795FC69
:105410000746002800F05C81BDF8403043819DF8CC
:105420003F300373437B43F004034373059B002B1E
:1054300070D0049B002B6AD0049B1F602C44A4B244
:10544000049754457AD2AAEB0405ADB25D4528BF56
:105450005D460023ADF840308DF83F30069B13F0D9
:10546000010F8DD1BDF84630002BB0D10122294665
:105470003620FCF7EBFD8146002800F02681079BD3
:105480001F1929463846FCF7D9FAC04380B2ADF857
:10549000400015F0010F9DD001238DF83F30030A25
:1054A00043EA0020ADF8400094E74846DDF830902C
:1054B000FCF78AFD04E0DDF830903846FCF784FD07
:1054C000B8F81A3043F08003A8F81A30B9F1000F89
:1054D00002D04846FCF778FD059B13B11846FDF74E
:1054E000F2F9B8F86630002B00F00381D8F870307C
:1054F000002B40F00281D8F86C30002B00F0EB80DC
:105500004FF0FF330993099813B0BDE8F08F01F015
:1055100061FA91E7059091E70A9C00230D930B93A4
:10552000002305930493CDF830908AE70B9B0D93ED
:105530000A9CF5E70D9B0B930A9CF1E7DDF8309090
:105540000A9D4DB3DDF820B0DBF8044000E024688C
:10555000ECB123892B4423812368002BF7D16068A9
:1055600063892A4607991844FCF792FA0BF10C0359
:105570000BF10A022946FFF71FFB9BF80D3043F0A1
:1055800004038BF80D3063892B446381DFE7089AAD
:1055900013890A9919441181BDF84630A8F868307A
:1055A000B9F1000F58D0089B002B52D04946089CF7
:1055B0006068FCF72CFEB9F8083022891344238177
:1055C0000D9BD3B1B9F1000F67D09DF8433033B1D3
:1055D000BDF84420130A43EA0223ADF84430089C86
:1055E000224604F10C030A320D99BDF84400FFF77E
:1055F000E3FA637B43F004036373089B002B52D0F0
:10560000089B059A1A60D8F85C305344C8F85C309F
:10561000B8F86430A3EB0A0AA8F864A0A8F866609A
:105620001EB1D8F87030002B41D0002F3FF46BAF83
:105630003B69002B3FF467AF069A12F0020F7FF42C
:1056400062AF9C890820FCF7FBF83B6904439C810E
:1056500059E701F0BFF9A9E70B9B002BB0D0089BDD
:105660002BB15B681BB1089B5B680B9806E001F0EF
:10567000B1F9F8E71A8902441A810B461968002922
:10568000F8D11A890B990A441A815A890A445A8115
:10569000089A13890B44138192E70B9B002B94D13A
:1056A00001F098F991E7059BC8F86C30ABE7D8F8A2
:1056B0006C30002BB9D101F08DF9B6E70590FFE60B
:1056C0000590FDE6DDF83090FAE6DDF83090F7E67B
:1056D000DDF83090F4E601F07DF94FF0FF330993E7
:1056E00011E76FF00F0309930DE76FF00F030993B4
:1056F00009E74FF0FF33099305E74FF0FF330993B4
:1057000001E72DE9F04F85B00D460023ADF80E30CE
:105710008DF80D30074600283FD0FC6E002C00F0BD
:10572000EC80002D3CD02389AB4240F2E9807B8E97
:10573000AB423AD32389002B3AD094F80D9009F06C
:10574000FB094FEA890B0BF0040BB4F808A0AAEB95
:105750000506B6B206EB0B014FF4207289B2362073
:10576000FCF774FC804670B16068038922899B1A3B
:105770009BB22B44D8F804109BB232465944FCF734
:10578000F0FDB04217D0B8F1000F00F0BD804046E8
:10579000FCF71AFC4FF0FF30B3E001F01BF9BCE757
:1057A00001F018F96FF00500ABE001F013F9C1E763
:1057B00001F010F9C1E7D8F8040031465844FCF76D
:1057C0003DF9C0430DF10D030DF10E02314680B2DB
:1057D000FFF7F2F923699889FCF732F8C3B200F0B9
:1057E0003F0610F0080B03D003F037064FF0080B0C
:1057F00016F0010F03D006F0FE064BF0010B2369F3
:105800005868FCF722F8CDF800902B185A4641460C
:105810003846FFF792FA80460028B4D0BDF80E3023
:1058200043819DF80D300373437B43F004034373BE
:105830006068FCF7D7FCB7F866301B1AA7F866302B
:1058400060680189A5EB0A05ADB2294489B2FCF76D
:105850008CFC23891D44258123699D893046FBF7F3
:10586000EFFF236905439D816068FCF7BBFCB7F837
:1058700066301844A7F866000023638123736568C7
:105880002E892189761AB6B202E0761AB6B22D6850
:1058900015B16989B142F8D3B5B901F09BF813E0AD
:1058A00068686989891B89B23044FCF7C7F869893F
:1058B000891BC04304F10C0304F10A0289B280B2CF
:1058C000FFF77AF92D680026002DE9D1D8F80400F9
:1058D000FCF788FCB7F866301844A7F86600236820
:1058E000C8F80030C4F80080D8F800300BB10020B0
:1058F00007E00020A7F8680003E04FF0FF3000E069
:10590000002005B0BDE8F08F4FF0FF30F9E72DE93A
:10591000F04383B004460D4611F003074CD0002C31
:105920004DD015F0020801D04FF001084FEA88066B
:1059300006F004064FF4207231463620FCF786FB51
:10594000814600283ED043899E4242D8CDF800804F
:10595000E36D2A4649462046FFF7EFF90646002840
:105960003AD0036913F0030F3DD13389002B3DD1A9
:10597000E36E002B3DD01A461B68002BFBD116604E
:105980000023A4F8683017B1E36D0133E36515F027
:10599000010F03D0638B43F0200363837068FCF72F
:1059A00021FCB4F86630184480B2A4F8660050B305
:1059B000236F03B3002027E001F00CF8AFE701F0FC
:1059C00009F8AEE7638B43F0800363834FF0FF3049
:1059D0001AE000F0FFFFB9E7638B43F080036383B5
:1059E0004FF0FF3010E000F0F5FFBEE700F0F2FFEF
:1059F000BEE7E666C4E7E36E0BB1002004E000F00A
:105A0000E9FF002000E0002003B0BDE8F08370B59E
:105A1000054688B1EB6E53B11C461B68002BFBD1C9
:105A200023699889FBF70CFF10F0070F07D00121BD
:105A30002846FFF76CFF70BD00F0CCFFEAE7236952
:105A40009E890120FBF7FCFE236906439E816B8B38
:105A500043F020036B830020EDE7F8B5054648B11D
:105A60002C6F74B3236843B12046FFF7FEF858BB90
:105A70002468F7E700F0AEFFF2E72046FFF7F5F8FD
:105A800028BBEB6E23602B6FEB6600232B676B8BC1
:105A900043F400636B8323695868FBF7D6FE064620
:105AA000278923699889FBF7CBFE10F0030F06D0F6
:105AB00001231F443E44EE6400206863F8BD0023C8
:105AC000F7E76FF00500F9E76FF00500F6E76FF014
:105AD0000500F3E7F8B5074650B13E6F66B33046B0
